S01B00006A667261633030315F6C6162365F70617274312E7372656367
S113000045C0000060C000005EC000005CC000008D
S11300105AC0000058C0000056C0000054C0000080
S113002052C0000050C000004EC000004CC0000090
S11300304AC000006DC0000046C0000044C000007B
S113004042C0000040C000003EC000003CC00000B0
S11300503AC0000038C0000036C0000034C00000C0
S113006032C0000030C000002EC000002CC00000D0
S11300702AC0000028C0000026C0000024C00000E0
S113008022C0000020C000001EC0000011241FBEBA
S1130090CFEFD0E4DEBFCDBF11E0A0E0B1E0ECE4EF
S11300A0F2E000E00BBF02C007900D92A630B1074A
S11300B0D9F721E0A6E0B1E001C01D92AD30B2074E
S11300C0E1F7B5D0C1C09CCF8BE0809381008DE770
S11300D090E0909389008093880082E080936F0081
S11300E01092850010928400809102019091030186
S11300F0A0910401B0910501809307019093080138
S1130100A0930901B0930A018FB780688FBF089547
S11301101F920F920FB60F9211248F939F93AF9358
S1130120BF938091070190910801A0910901B091BA
S11301300A010197A109B10980930701909308016D
S1130140A0930901B0930A01892B8A2B8B2B99F474
S113015081E080930B018091020190910301A091B1
S11301600401B09105018093070190930801A093C5
S11301700901B0930A01BF91AF919F918F910F90A4
S11301800FBE0F901F9018956093020170930301A6
S11301908093040190930501609307017093080113
S11301A08093090190930A01089580910C01813094
S11301B051F028F0823089F08330C9F022C081E008
S11301C080930C0125C080910B01882309F11092C2
S11301D00B0182E080930C0120C080910B018823E5
S11301E0E1F010920B0183E080930C011BC080911D
S11301F00B018823B9F010920B0181E080930C016C
S113020007C010920C011092060110920B01089580
S113021081E08093060185B9089582E08093060108
S113022085B9089584E08093060185B9089587E02F
S113023084B915B8609100017091010180E090E0EB
S10F0240A3DF42DFB2DFFECFF894FFCF53
S109024CE80301000000BC
S9030000FC
