:1000000045C0000060C000005EC000005CC0000091
:100010005AC0000058C0000056C0000054C0000084
:1000200052C0000050C000004EC000004CC0000094
:100030004AC000006DC0000046C0000044C000007F
:1000400042C0000040C000003EC000003CC00000B4
:100050003AC0000038C0000036C0000034C00000C4
:1000600032C0000030C000002EC000002CC00000D4
:100070002AC0000028C0000026C0000024C00000E4
:1000800022C0000020C000001EC0000011241FBEBE
:10009000CFEFD0E4DEBFCDBF11E0A0E0B1E0EEEAEB
:1000A000F3E000E00BBF02C007900D92A630B1074D
:1000B000D9F721E0A6E0B1E001C01D92A631B20758
:1000C000E1F74DD172C19CCF8BE0809381008DE729
:1000D00090E0909389008093880082E080936F0085
:1000E000109285001092840080910201909103018A
:1000F000A0910401B091050180930D0190930E0130
:10010000A0930F01B09310018FB780688FBF08953F
:100110001F920F920FB60F9211248F939F93AF935C
:10012000BF9380910D0190910E01A0910F01B091AC
:1001300010010197A109B10980930D0190930E015F
:10014000A0930F01B0931001892B8A2B8B2B99F46C
:1001500081E0809311018091020190910301A091AF
:100160000401B091050180930D0190930E01A093BD
:100170000F01B0931001BF91AF919F918F910F909C
:100180000FBE0F901F9018956093020170930301AA
:10019000809304019093050160930D0170930E010B
:1001A00080930F0190931001089580911201813086
:1001B00051F028F0823089F08330C9F022C081E00C
:1001C0008093120121C080910C018E31E8F01092D1
:1001D0000C0182E08093120120C080910C018E31CD
:1001E000E0F010920C0183E0809312011FC0809117
:1001F0000C018E31D8F010920C0181E08093120135
:1002000003C010921201089581E08093080180914B
:100210000C018F5F80930C01089582E080930801A8
:1002200080910C018F5F80930C01089584E080938E
:10023000080180910C018F5F80930C0108958091DB
:100240001401813041F018F0823079F018C081E05B
:100250008093140123C080910B018436F8F0109232
:100260000B0182E08093140111C080910B01843650
:1002700068F010920B0181E0809314010FC010927E
:10028000140110920B0110920701089510920701BA
:1002900080910B018F5F80930B01089588E080931C
:1002A000070180910B018F5F80930B01089580916E
:1002B0001501882319F0813051F004C081E080934A
:1002C000150105C010921501109206010895909134
:1002D000080180910701892B80930601089580B160
:1002E000847080930A0190911301923091F018F478
:1002F000992331F02CC09330A9F09430F9F027C045
:10030000882339F182E08093130180E18093090111
:100310000895811103C0109213011BC083E08093E4
:1003200013011AC0811103C01092130112C084E09E
:100330008093130180E1809309010895811103C026
:100340001092130106C083E08093130105C0109240
:1003500013011092090108951092090108958FEF79
:1003600084B915B811B882B960910001709101018A
:1003700080E090E009DFA8DE1092120110921401D3
:100380001092150110921301AADF0FDF58DF8FDFE3
:100390009091060180910901892B85B98091110105
:0E03A0008823E1F310921101EFCFF894FFCF04
:0603AE000A00010000003E
:00000001FF
