S01C00006A667261633030315F6C616231315F70617274322E7372656339
S113000045C0000060C000005EC000005CC000008D
S11300105AC0000058C0000056C0000054C0000080
S113002052C0000050C000004EC000004CC0000090
S11300304AC000001AC1000046C0000044C00000CD
S113004042C0000040C000003EC000003CC00000B0
S11300503AC0000038C0000036C0000034C00000C0
S113006032C0000030C000002EC000002CC00000D0
S11300702AC0000028C0000026C0000024C00000E0
S113008022C0000020C000001EC0000011241FBEBA
S1130090CFEFD0E4DEBFCDBF11E0A0E0B1E0ECECE7
S11300A0F3E000E00BBF02C007900D92AE32B1073F
S11300B0D9F721E0AEE2B1E001C01D92A035B2074C
S11300C0E1F70FD181C19CCF181619065CF0089591
S11300D0000021503109E1F74F5F5F4F8417950706
S11300E019F4089540E050E027E033E0F1CF109890
S11300F08BB9119A0000119882E090E0E5CF089541
S113010081E0F5CF0895813118F48158F0CF089536
S11301108155EDCF089584E690E0D6DF88E3E7DFEC
S113012086E0E5DF8FE0E3DF81E0E1DF8AE090E075
S1130130CBCF0895109A8BB9119A0000119881E0E1
S113014090E0C2CF08950F931F93CF93DF93182F9E
S1130150EB01D6DF8881882351F001E0010F812F64
S1130160D2DF8991E7DF102F88818111F6CFDF91EB
S1130170CF911F910F910895AF92BF92CF92DF92CA
S1130180EF92FF920F931F93CF93DF938C01C09054
S11301900001D090010120913901A22EB12C0F2E23
S11301A0FFE4EF2EF1E0FF2EF02DEFE3F1E09501F7
S11301B02F533140C6E2D0E0C9018E0F9F1FBE010C
S11301C0DCD0D601A80FB91F8C918193EE15FF05E1
S11301D099F7C501019666E270E0CFD080933901AA
S11301E06FE371E081E0AFDFC801DF91CF911F9130
S11301F00F91FF90EF90DF90CF90BF90AF90089554
S113020060930201709303018093040190930501AC
S113021060933A0170933B0180933C0190933D01BC
S113022008958BE0809381008DE790E0909389009E
S11302308093880082E080936F0010928500109272
S113024084008091020190910301A0910401B09176
S1130250050180933A0190933B01A0933C01B09334
S11302603D018FB780688FBF08951F920F920FB61C
S11302700F9211248F939F93AF93BF9380913A0170
S113028090913B01A0913C01B0913D010197A109DE
S1130290B10980933A0190933B01A0933C01B09340
S11302A03D01892B8A2B8B2B99F481E080933E01AD
S11302B08091020190910301A0910401B091050184
S11302C080933A0190933B01A0933C01B0933D018C
S11302D0BF91AF919F918F910F900FBE0F901F9080
S11302E018958FEF8AB91BB881B912B8EEE2F1E024
S11302F0808384E190E0A0E0B0E081839283A383D3
S1130300B48385839683A783B0878CEB90E0928730
S1130310818764E170E080E090E072DF82DFFBDEE1
S1130320CEE2D1E04D815E816F81788589819A81A9
S1130330AB81BC81481759076A077B0761F4888140
S1130340E985FA85082E000C990B099588831D828E
S11303501E821F8218868D819E81AF81B885019689
S1130360A11DB11D8D839E83AF83B88780913E010B
S11303708823E1F310923E01D5CF97FB072E16F4A4
S1130380009406D077FD08D00BD007FC05D03EF4CE
S1130390909581959F4F0895709561957F4F08952D
S11303A0AA1BBB1B51E107C0AA1FBB1FA617B70797
S11303B010F0A61BB70B881F991F5A95A9F78095B3
S10F03C09095BC01CD010895F894FFCF86
S11303CC060101000000435331323042206973208E
S11303DC4C6567656E642E2E2E20776169742066D9
S11103EC6F7220697420444152592120000090
S9030000FC
