:1000000045C0000060C000005EC000005CC0000091
:100010005AC0000058C0000056C0000054C0000084
:1000200052C0000050C000004EC000004CC0000094
:100030004AC0000048C0000046C0000044C00000A4
:1000400042C0000040C000003EC000003CC00000B4
:100050003AC0000038C0000036C0000034C00000C4
:1000600032C0000030C000002EC000002CC00000D4
:100070002AC0000028C0000026C0000024C00000E4
:1000800022C0000020C000001EC0000011241FBEBE
:10009000CFEFD0E4DEBFCDBF11E0A0E0B1E0ECE0F7
:1000A000F6E000E00BBF02C007900D92A630B1074A
:1000B000D9F721E0A6E0B1E001C01D92AC30B20753
:1000C000E1F7DAD0A1C29CCFCF92DF92EF92FF92FC
:1000D0006B017C019B01AC016091060170910701ED
:1000E0008091080190910901D9D0882309F44FC06B
:1000F00020E030E0A901C701B601D0D0811106C0CF
:10010000E1E9F0E080818870808305C0E1E9F0E0FA
:1001100080818360808328E539E344E75FE3C7019A
:10012000B601BCD088233CF48FEF9FEF90939900E9
:100130008093980023C020E034E244EF56E4C701E6
:10014000B601FBD118162CF4109299001092980069
:1001500015C020E030E040E053E4C701B601F1D122
:100160009B01AC0160E074E284EF9AE49BD002D181
:1001700061507109709399006093980016BCC09209
:100180000601D0920701E0920801F0920901FF9068
:10019000EF90DF90CF90089580E4809390008BE003
:1001A0008093910060E070E0CB018ECF0895809144
:1001B0000B01823011F128F4882341F0813051F095
:1001C00034C0833011F1843041F12FC081E080933D
:1001D0000B0132C080910A01813021F482E08093CA
:1001E0000B012FC0823021F483E080930B0132C0D9
:1001F000843011F580930B0136C080910A01813063
:1002000001F181E080930B0117C080910A018230D7
:1002100009F181E080930B010FC080910A018430C5
:1002200011F181E080930B0107C010920B0160E097
:1002300070E0CB0149CF089560E070E0CB0144CF7E
:100240000895609104017091050180E090E0C3D0B1
:100250003BCF0895609102017091030180E090E02E
:10026000BAD032CF0895609100017091010180E011
:1002700090E0B1D029CF089511B88FEF82B984B939
:1002800015B810920B0188DF60E070E0CB011CDF35
:1002900080B1877080930A018ADFFACFD9D008F441
:1002A00081E008950CD00FC107D140F0FED030F0AE
:1002B00021F45F3F19F0F0C0511139C1F3C014D1DE
:1002C00098F39923C9F35523B1F3951B550BBB271D
:1002D000AA2762177307840738F09F5F5F4F220FCA
:1002E000331F441FAA1FA9F333D00E2E3AF0E0E8C3
:1002F00030D091505040E695001CCAF729D0FE2F0F
:1003000027D0660F771F881FBB1F261737074807A0
:10031000AB07B0E809F0BB0B802DBF01FF27935856
:100320005F4F2AF09E3F510568F0B6C000C15F3FA5
:10033000ECF3983EDCF3869577956795B795F7953E
:100340009F5FC9F7880F911D9695879597F9089536
:10035000E1E0660F771F881FBB1F621773078407D2
:10036000BA0720F0621B730B840BBA0BEE1F88F7E1
:10037000E095089504D06894B111D9C00895BCD017
:1003800088F09F5790F0B92F9927B751A0F0D1F07E
:10039000660F771F881F991F1AF0BA95C9F712C008
:1003A000B13081F0C3D0B1E00895C0C0672F782F7D
:1003B0008827B85F39F0B93FCCF386957795679574
:1003C000B395D9F73EF490958095709561957F4FE0
:1003D0008F4F9F4F0895E89409C097FB3EF4909586
:1003E0008095709561957F4F8F4F9F4F9923A9F00E
:1003F000F92F96E9BB279395F6958795779567959D
:10040000B795F111F8CFFAF4BB0F11F460FF1BC0E0
:100410006F5F7F4F8F4F9F4F16C0882311F096E973
:1004200011C0772321F09EE8872F762F05C0662321
:1004300071F096E8862F70E060E02AF09A95660FDA
:10044000771F881FDAF7880F9695879597F9089593
:10045000990F0008550FAA0BE0E8FEEF16161706D5
:10046000E807F907C0F012161306E407F50798F03D
:10047000621B730B840B950B39F40A2661F0232B56
:10048000242B252B21F408950A2609F4A140A695D2
:100490008FEF811D811D089597F99F6780E870E0B7
:1004A00060E008959FEF80EC089500240A941616EA
:1004B000170618060906089500240A941216130652
:1004C000140605060895092E0394000C11F48823E0
:1004D00052F0BB0F40F4BF2B11F460FF04C06F5FFC
:1004E0007F4F8F4F9F4F089557FD9058440F551FD2
:1004F00059F05F3F71F04795880F97FB991F61F0A6
:100500009F3F79F087950895121613061406551F1C
:10051000F2CF4695F1DF08C0161617061806991F88
:10052000F1CF86957105610508940895E894BB277D
:1005300066277727CB0197F908958ADF08F48FEFB4
:1005400008950BD0C0CFB1DF28F0B6DF18F09523A7
:1005500009F0A2CFA7CF1124EACFC6DFA0F3959F61
:10056000D1F3950F50E0551F629FF001729FBB279A
:10057000F00DB11D639FAA27F00DB11DAA1F649F46
:100580006627B00DA11D661F829F2227B00DA11DF9
:10059000621F739FB00DA11D621F839FA00D611D7F
:1005A000221F749F3327A00D611D231F849F600DA0
:1005B000211D822F762F6A2F11249F5750408AF0D9
:1005C000E1F088234AF0EE0FFF1FBB1F661F771F65
:1005D000881F91505040A9F79E3F510570F05CCFA5
:1005E000A6CF5F3FECF3983EDCF386957795679551
:1005F000B795F795E7959F5FC1F7FE2B880F911D83
:0C0600009695879597F90895F894FFCF20
:06060C0049012501050172
:00000001FF
