S01B00006A667261633030315F6C6162355F70617274322E7372656367
S11300004DC000005BC0000059C0000057C0000094
S113001055C0000053C0000051C000004FC0000094
S11300204DC000004BC0000049C0000047C00000A4
S113003045C0000043C0000041C000003FC00000B4
S11300403DC000003BC0000039C0000037C00000C4
S113005035C0000033C0000031C000002FC00000D4
S11300602DC000002BC0000029C0000027C00000E4
S113007025C0000023C0000021C000001FC00000F4
S11300801DC000001BC0000019C000006B007200FE
S113009087009D009900AF00B300BB0011241FBE70
S11300A0CFEFD0E4DEBFCDBF21E0A0E0B1E001C0DE
S11300B01D92A330B207E1F768D07EC0A1CFE091D2
S11300C002018E2F90E08830910508F05BC0FC019E
S11300D0EA5BFF4F68C081E0809302011092000147
S11300E015B8089580910101833021F487E080934D
S11300F002010895813021F482E080930201089581
S1130100823009F041C083E0809302010895809118
S113011001018130C9F180910001893028F48F5F99
S11301208093000185B901C085B984E08093020100
S1130130089581E080930201089580910101823045
S113014019F180910001882329F0815080930001E6
S113015085B901C015B885E080930201089581E056
S113016080930201089580910101833069F087E052
S11301708093020108951092000115B881E08093E4
S11301800201089510920201089511B883E082B922
S11301908FE084B915B81092020180B18370809306
S11301A001018DDFFACFEE0FFF1F0024001C0BBEF0
S10F01B00790F691E02D0994F894FFCF1D
S9030000FC
