S02000006A667261633030315F6C6162375F6368616C6C656E6765312E7372656375
S113000045C0000060C000005EC000005CC000008D
S11300105AC0000058C0000056C0000054C0000080
S113002052C0000050C000004EC000004CC0000090
S11300304AC00000C5C0000046C0000044C0000023
S113004042C0000040C000003EC000003CC00000B0
S11300503AC0000038C0000036C0000034C00000C0
S113006032C0000030C000002EC000002CC00000D0
S11300702AC0000028C0000026C0000024C00000E0
S113008022C0000020C000001EC0000011241FBEBA
S1130090CFEFD0E4DEBFCDBF11E0A0E0B1E0E4EBF0
S11300A0F3E000E00BBF02C007900D92A031B1074E
S11300B0D9F721E0A0E1B1E001C01D92A931B20756
S11300C0E1F747D175C19CCF181619065CF0089565
S11300D0000021503109E1F74F5F5F4F8417950706
S11300E019F4089540E050E027E033E0F1CF5E9842
S11300F088B95F9A00005F9882E090E0E5CF0895A8
S113010081E0F5CF0895813118F48158F0CF089536
S11301108155EDCF089584E690E0D6DF88E3E7DFEC
S113012086E0E5DF8FE0E3DF81E0E1DF8AE090E075
S1130130CBCF08955E9A88B95F9A00005F9881E0FA
S113014090E0C2CF08950F931F93CF93DF93182F9E
S1130150EB01D6DF8881882351F001E0010F812F64
S1130160D2DF8991E7DF102F88818111F6CFDF91EB
S1130170CF911F910F9108958BE0809381008DE7BB
S113018090E0909389008093880082E080936F00D0
S113019010928500109284008091020190910301D5
S11301A0A0910401B091050180931301909314016F
S11301B0A0931501B09316018FB780688FBF08957F
S11301C01F920F920FB60F9211248F939F93AF93A8
S11301D0BF938091130190911401A0911501B091E6
S11301E016010197A109B109809313019093140199
S11301F0A0931501B0931601892B8A2B8B2B99F4AC
S113020081E0809317018091020190910301A091F4
S11302100401B09105018093130190931401A093FC
S11302201501B0931601BF91AF919F918F910F90DB
S11302300FBE0F901F9018956093020170930301F5
S1130240809304019093050160931301709314014A
S113025080931501909316010895809118018230BE
S113026061F128F4882349F0813081F06BC0833038
S1130270D9F1843009F44FC065C085E08093100142
S11302801092120181E080931801089581E0809317
S1130290120185B980911101882359F080911001D0
S11302A0882319F081508093100181E08093180114
S11302B0089582E080931801089582E080931201EA
S11302C085B980911101882359F0809110018930FA
S11302D018F48F5F8093100181E0809318010895D2
S11302E083E080931801089584E08093120185B916
S11302F080911101882359F080911001882319F00D
S113030081508093100181E080931801089584E066
S113031080931801089582E08093120185B9809139
S11303201101882359F080911001893018F48F5FEE
S11303308093100181E080931801089581E08093F7
S11303401801089587E08093120185B9109218016D
S1130350089587E084B915B811B881E082B98FEFA8
S113036087B918B880EC8AB91BB8D5DE6091000152
S11303707091010180E090E05FDFFEDE80B181706A
S1130380809311016ADFBCDE81E0BDDE8091100143
S1130390893029F466E071E081E0D5DE02C0805D39
S11303A0C9DE809117018823E1F310921701E6CF8B
S10703B0F894FFCFEB
S11303B4E80301000000566963746F727921000038
S9030000FC
