:100000004DC0000068C0000066C0000064C0000071
:1000100062C0000060C000005EC000005CC0000064
:100020005AC0000058C0000056C0000054C0000074
:1000300052C0000075C000004EC000004CC000005F
:100040004AC0000048C0000046C0000044C0000094
:1000500042C0000040C000003EC000003CC00000A4
:100060003AC0000038C0000036C0000034C00000B4
:1000700032C0000030C000002EC000002CC00000C4
:100080002AC0000028C0000026C00000E900F100DE
:100090000B0125013F0159016801770111241FBEA1
:1000A000CFEFD0E4DEBFCDBF11E0A0E0B1E0E6E5E8
:1000B000F3E000E00BBF02C007900D92A630B1073D
:1000C000D9F721E0A6E0B1E001C01D92AE30B20741
:1000D000E1F722D13EC194CF8BE0809381008DE780
:1000E00090E0909389008093880082E080936F0075
:1000F000109285001092840080910201909103017A
:10010000A0910401B0910501809308019093090129
:10011000A0930A01B0930B018FB780688FBF089539
:100120001F920F920FB60F9211248F939F93AF934C
:10013000BF938091080190910901A0910A01B091AB
:100140000B010197A109B10980930801909309015E
:10015000A0930A01B0930B01892B8A2B8B2B99F466
:1001600081E080930C018091020190910301A091A4
:100170000401B09105018093080190930901A093B7
:100180000A01B0930B01BF91AF919F918F910F9096
:100190000FBE0F901F90189560930201709303019A
:1001A0008093040190930501609308017093090105
:1001B00080930A0190930B010895E0910D018E2F19
:1001C00090E08830910508F0A0C0FC01EA5BFF4F89
:1001D000B7C01092070110920C0181E080930D01CD
:1001E000089581E08093070185B980910C01811108
:1001F0000CC080910601811104C081E080930D0143
:10020000089585E080930D01089510920C0182E01D
:1002100080930D01089582E08093070185B9809154
:100220000C0181110CC080910601811104C082E093
:1002300080930D01089585E080930D01089510923B
:100240000C0183E080930D01089584E08093070101
:1002500085B980910C0181110CC08091060181113A
:1002600004C083E080930D01089585E080930D0123
:10027000089510920C0184E080930D01089582E0AE
:100280008093070185B980910C0181110CC0809188
:100290000601811104C084E080930D01089585E07A
:1002A00080930D01089510920C0181E080930D015F
:1002B00008958091070185B980910601882321F076
:1002C00085E080930D01089586E080930D010895E7
:1002D0008091070185B980910601811104C086E0F3
:1002E00080930D01089587E080930D01089580911A
:1002F000070185B980910601882321F087E080936A
:100300000D01089510920D01089587E08093070173
:1003100085B910920D01089587E084B915B811B818
:1003200081E082B9609100017091010180E090E06C
:1003300033DFD2DE80B18170809306013EDFFACFD9
:10034000EE0FFF1F0024001C0BBE0790F691E02D5E
:060350000994F894FFCFB0
:060356002C010100000073
:00000001FF
