:1000000078C0000094C0000092C0000090C00000C2
:100010008EC000008CC000008AC0000088C00000B4
:1000200086C0000084C0000082C0000080C00000C4
:100030007EC00000B2C000007AC0000078C000009E
:1000400076C0000074C0000072C0000070C00000E4
:100050006EC000006CC000006AC0000068C00000F4
:1000600066C0000064C0000062C0000060C0000004
:100070005EC000005CC000005AC0000058C0000014
:1000800056C0000054C0000052C00000A601AF01DD
:10009000B801C101CA01D301DC01E501EE01F7019C
:1000A00000020902120228022F0236023D0240021B
:1000B000400246024C0281025202C505A606BF0656
:1000C000CF0507060406BF0678067F068B06910655
:1000D0009706BF06BF06A907B206B806BF06F70611
:1000E000A907CD06FB060B071E074E077D07EC068A
:1000F000E10611241FBECFEFD0E4DEBFCDBF15E077
:10010000A0E0B1E0ECE9F8E100E00BBF02C007902D
:100110000D92A23CB107D9F726E0A2ECB5E001C0F0
:100120001D92A031B207E1F720D70C944C0C68CF98
:100130006093F0047093F1048093F2049093F304BD
:100140006093F1057093F2058093F3059093F405A5
:1001500008958BE0809381008DE790E09093890073
:100160008093880082E080936F0010928500109247
:1001700084008091F0049091F104A091F204B09178
:10018000F3048093F1059093F205A093F305B093E7
:10019000F4058FB780688FBF08951F920F920FB636
:1001A0000F9211248F939F93AF93BF938091F1058A
:1001B0009091F205A091F305B091F4050197A10982
:1001C000B1098093F1059093F205A093F305B093E4
:1001D000F405892B8A2B8B2B99F481E08093F5050C
:1001E0008091F0049091F104A091F204B091F30495
:1001F0008093F1059093F205A093F305B093F40575
:10020000BF91AF919F918F910F900FBE0F901F9054
:100210001895181619065CF0089500002150310950
:10022000E1F74F5F5F4F8417950719F4089540E099
:1002300050E027E033E0F1CF12988BB9139A000019
:10024000139882E090E0E5CF089581E0F5CF08951E
:10025000813118F48158F0CF08958155EDCF08957C
:1002600084E690E0D6DF88E3E7DF86E0E5DF8FE035
:10027000E3DF81E0E1DF8AE090E0CBCF0895129ADE
:100280008BB9139A0000139881E090E0C2CF0895D3
:100290001F93CF93DF93FB019081992351F0EB01E2
:1002A00011E0180FD5DF8991EADF812F9881911134
:1002B000F7CFDF91CF911F910895FB0101900020AE
:1002C000E9F73197E61BF70BE093EB059F01332726
:1002D0001216130674F4FC01DB01280F391F81E0AC
:1002E00050E041919D914913852FE217F307C9F71B
:1002F000089581E008958BD769E070E0EFC6089516
:100300000F931F93CF93DF938B01880F880F880F74
:10031000805C92DFE801085F1F4F8991B0DFC01752
:10032000D107D9F780E888DFDF91CF911F910F9136
:100330000895CF93962F482F50E04D30510508F087
:1003400079C0C92FFA01EA5BFF4FFDC661E674E090
:1003500080E0D6DF8C2F7CDF80E091DF6BC069E529
:1003600074E081E0CDDF8C2F73DF81E088DF62C035
:1003700061E574E082E0C4DF8C2F6ADF82E07FDF1A
:1003800059C069E474E083E0BBDF8C2F61DF83E058
:1003900076DF50C061E474E084E0B2DF8C2F58DF78
:1003A00084E06DDF47C069E374E085E0A9DF8C2F4E
:1003B0004FDF85E064DF3EC061E374E086E0A0DFEC
:1003C0008C2F46DF86E05BDF35C069E374E085E0B3
:1003D00097DF8C2F3DDF85E052DF2CC061E474E0B5
:1003E00084E08EDF8C2F34DF84E049DF23C069E4B2
:1003F00074E083E085DF8C2F2BDF83E040DF1AC0C1
:1004000061E574E082E07CDF8C2F22DF82E037DF61
:1004100011C069E574E081E073DF8C2F19DF81E0A2
:100420002EDF08C061E674E080E06ADF8C2F10DF09
:1004300080E025DFCF91089520B120732093D80567
:100440008A30910508F07CC0FC01ED5AFF4F7BC655
:100450008091DE05843108F473C0F7DE7FC080919F
:10046000DD05803208F47AC0F0DE9CC08091DF05A3
:10047000823308F497C0E9DEA3C0211127C0A0C0D1
:100480008091DB058E3130F1E0DE3EC08091DA05EF
:100490008E31D0F1DADE46C08091D9058E3108F474
:1004A00041C026C020910F06213009F496C0109259
:1004B000DF051092DE051092DC051092DB0510922C
:1004C000DA051092D9051092DD053AC0BEDE84E04F
:1004D00090E00895609108017091090181E0D8DEF3
:1004E0008091DB058F5F8093DB0585E090E00895C8
:1004F00081E080930F061092E505A7DE88E090E08A
:10050000089589E090E008956091060170910701D7
:1005100081E0BEDE8091DA058F5F8093DA0586E0A8
:1005200090E00895609104017091050181E0B0DED2
:100530008091D9058F5F8093D90587E090E0089579
:1005400060910E0170910F0181E0A2DE8091DE05C5
:100550008F5F8093DE0580E090E008956091E00574
:100560008091E105E6DE8091E10590E001966CE086
:1005700070E0B4D58093E1058091E00590E00196AC
:100580008F719078992324F40197806E9F6F019664
:100590008093E0058091DD058F5F8093DD0581E02C
:1005A00090E0089560910C0170910D0181E070DE82
:1005B0008091DF058F5F8093DF0582E090E00895F2
:1005C00060910A0170910B0181E062DE8091DC058F
:1005D0008F5F8093DC0583E090E00895FC0101903B
:1005E0000020E9F73197608311820895FF920F93FD
:1005F0001F93CF93DF93CDB7DEB728970FB6F8944C
:10060000DEBF0FBECDBFF82E98E0E4EFF4E0DE01D0
:10061000119601900D929A95E1F7811143C26BE119
:1006200074E00EED13E09E01275F3F4F25C09081DF
:10063000909595B99D9198B98CEC9AE00197F1F756
:1006400000C00000919195B92E173F0781F74F5FC9
:100650005F4FE091E804F091E9044E175F071CF04A
:1006600006C040E050E0FE013196DB01E0CF615072
:1006700071090617170741F04091E8045091E90409
:100680001416150674F3F3CF15B818B8A7C09081E7
:10069000909595B99D9198B98CEC9AE00197F1F7F6
:1006A00000C00000919195B92E173F0781F74F5F69
:1006B0005F4FE091E804F091E9044E175F071CF0EA
:1006C00006C040E050E0FE013196DB01E0CF615012
:1006D00071096017710741F04091E8045091E904F5
:1006E0001416150674F3F3CF15B818B827C192E0A5
:1006F000F912E3C160E873E003E413E09E01275FB1
:100700003F4F25C09081909595B99D9198B98CECFB
:100710009AE00197F1F700C00000919195B9E217B6
:10072000F30781F74F5F5F4FE091E804F091E90430
:100730004E175F071CF006C040E050E0FE01319606
:10074000DB01E0CF615071090617170741F04091B6
:10075000E8045091E9041416150674F3F3CF15B8A4
:1007600018B8B0C09081909595B99D9198B98CECCE
:100770009AE00197F1F700C00000919195B9E21756
:10078000F30781F74F5F5F4FE091E804F091E904D0
:100790004E175F071CF006C040E050E0FE013196A6
:1007A000DB01E0CF615071090617170741F40FC054
:1007B00063ED72E006E912E09E01275F3F4F409132
:1007C000E8045091E9041416150634F3EBCF15B87C
:1007D00018B895E0F91609F463C079C184E0F816F9
:1007E00039F170C19081909595B99D9198B98CEC33
:1007F0009AE00197F1F700C00000919195B92E178A
:100800003F0781F74F5F5F4FE091E804F091E90403
:100810004E175F071CF006C040E050E0FE01319625
:10082000DB01E0CF615071090617170741F40FC0D3
:1008300067E373E00AEF12E09E01275F3F4F4091AC
:10084000E8045091E9041416150634F3EBCF15B8FB
:1008500018B838C09081909595B99D9198B98CEC55
:100860009AE00197F1F700C00000919195B9E21765
:10087000F30781F74F5F5F4FE091E804F091E904DF
:100880004E175F071CF006C040E050E0FE013196B5
:10089000DB01E0CF615071090617170741F40FC063
:1008A0006EE872E001E512E09E01275F3F4F409144
:1008B000E8045091E9041416150634F3EBCF15B88B
:1008C00018B83CC096E0F91207C126C090819095F7
:1008D00095B99D9198B98CEC9AE00197F1F700C019
:1008E0000000919195B92E173F0781F74F5F5F4F39
:1008F000E091E804F091E9044E175F071CF006C090
:1009000040E050E0FE013196DB01E0CF615071091B
:100910006017710741F40FC068E472E00BE012E069
:100920009E01275F3F4F4091E8045091E90414165F
:10093000150634F3EBCF15B818B83CC097E0F912A0
:10094000CFC026C09081909595B99D9198B98CECB7
:100950009AE00197F1F700C00000919195B9E21774
:10096000F30781F74F5F5F4FE091E804F091E904EE
:100970004E175F071CF006C040E050E0FE013196C4
:10098000DB01E0CF615071090617170741F40FC072
:1009900064EE71E007EA11E09E01275F3F4F40914E
:1009A000E8045091E9041416150634F3EBCF15B89A
:1009B00018B83CC098E0F91297C026C08081809595
:1009C00085B98D9188B98CEC9AE00197F1F700C058
:1009D0000000819185B9E217F30781F74F5F5F4F00
:1009E0008091E8049091E904481759071CF006C06B
:1009F00040E050E0FE013196DB01E0CF615071092B
:100A00000617170741F40FC06EE971E001E611E027
:100A10009E01275F3F4F8091E8049091E9041816EA
:100A2000190634F3EBCF15B818B861C099E0F91680
:100A300039F15DC08081809585B98D9188B98CEC44
:100A40009AE00197F1F700C00000819185B9E217A3
:100A5000F30781F74F5F5F4F8091E8049091E904BD
:100A6000481759071CF006C040E050E0FE013196DF
:100A7000DB01E0CF615071096017710741F40FC0CD
:100A80006CE471E00FE011E09E01275F3F4F809121
:100A9000E8049091E9041816190634F3EBCF15B861
:100AA00018B825C091E0891322CE69EC73E00CE8F8
:100AB00013E09E01275F3F4F0FCE83E0F81609F445
:100AC00077CE8CCE95E0F91609F4EACEFBCE86E01F
:100AD000F81609F421CF32CF97E0F9126BCF58CF37
:100AE00088E0F812A3CF90CF99E0F91649F2289642
:100AF0000FB6F894DEBF0FBECDBFDF91CF911F912F
:100B00000F91FF900895EAE7F0E08081816880838B
:100B1000ECE7F0E0808180648083089580E4809336
:100B20007C00EAE7F0E0808180648083808184FF3C
:100B3000FDCFE8E7F0E0808191819093EA05809312
:100B4000E905118210828091E9059091EA050895E6
:100B50000F931F93CF93DF93CDB7DEB7A4970FB654
:100B6000F894DEBF0FBECDBF8C0180B18071809341
:100B7000ED0590B190729093EC050E30110508F0E0
:100B8000E3C1F801E35AFF4FDEC291E080E020911B
:100B90000F06211101C090E0092F182FD9C0BEDF28
:100BA0008093EE052091ED052111D1C19927209167
:100BB000EE043091EF04A9014E5C5F4F48175907CE
:100BC00034F48091F0058A3108F406C1D8C0245667
:100BD00031098217930734F48091F0058A3108F4C3
:100BE000F0C0CDC08091EC05882309F4C8C0E09125
:100BF000F005F0E0E353FB4F60816093F60570E091
:100C000089EF95E0EBDCF3C08111A3C1C6C08091F0
:100C1000F7059091F805009741F460EB74E089EFD7
:100C200095E04BDB8093E8055EC08130910541F48F
:100C300068EA74E089EF95E040DB8093E80553C0F3
:100C40008230910541F461EA74E089EF95E035DB8B
:100C50008093E80548C08330910541F460E974E071
:100C600089EF95E02ADB8093E8053DC0843091054B
:100C700041F46AE974E089EF95E01FDB8093E805B1
:100C800032C08530910541F469E874E089EF95E060
:100C900014DB8093E80527C08630910541F462E8B3
:100CA00074E089EF95E009DB8093E8051CC087308C
:100CB000910541F468E774E089EF95E0FEDA8093EE
:100CC000E80511C0089741F461E774E089EF95E009
:100CD000F4DA8093E80507C069E674E089EF95E0EF
:100CE000ECDA8093E8058091E805811194C083C017
:100CF0008091E605823308F47EC0A7DA9FC0809118
:100D0000E705823308F487C0A0DA8091E5058F5F9C
:100D10008093E50593C08091E305823308F48EC08B
:100D2000BDC08091E2058E3108F4B8C0E6C0809164
:100D3000E805882331F081E080930F0600E010E0A1
:100D400008C110920F0600E010E003C102E010E0BD
:100D50000E30110520F4F801E559FF4FF4C100E011
:100D600010E0F7C0C8DA9093F8058093F705F1C05A
:100D70006CDA8091F7059091F80538DCEAC0809133
:100D8000EF058F5F65DAE091F005F0E0E353FB4F8C
:100D9000808175DA03E010E0DCC0E091F005F0E05E
:100DA000E353FB4F60816093F60570E089EF95E0B7
:100DB00015DC8091EF058F5F8093EF0506E010E072
:100DC000C8C08091F005882309F4B8C08150809391
:100DD000F0050DE010E0BDC08091F005893108F00C
:100DE000B0C08F5F8093F0050CE010E0B2C02DDA48
:100DF00004E010E0AEC06091EC047091ED0481E07D
:100E000047DA8091E6058F5F8093E6051092E8054A
:100E100007E010E09EC06091EA047091EB0481E06D
:100E200037DA8091E7058F5F8093E70581E0809353
:100E30000F068093E80508E010E08BC08091E8057C
:100E4000882371F06CEF74E081E022DA8DE000DA43
:100E5000E091E505F0E0E854FB4F808110DA0DC029
:100E600069E075E081E014DA8DE0F2D9E091E50502
:100E7000F0E0E854FB4F808102DA6091E505809153
:100E8000E405861718F480E190E0BDD48091E30575
:100E90008F5F8093E30509E010E05BC080E190E0A4
:100EA000AAD41F928F9386E195E09F938F938E0132
:100EB0000F5D1F4F1F930F93C3D18DE0E9E1F5E064
:100EC000DE01119601900D928A95E1F7B801CE01ED
:100ED0000196ABD1BE016F5F7F4F81E0D9D9809180
:100EE000E2058F5F8093E2050F900F900F900F90B7
:100EF0000F900F900AE010E02CC01092F0051092B5
:100F0000EF05A3D980E0A4D91092F90510920D063F
:100F100010920E061092E7051092E6051092E20577
:100F20008091E8049091E90401979093E9048093FB
:100F3000E8041092E3050BE010E00BC00DE010E0B8
:100F400008C00CE010E005C000E010E002C005E0C1
:100F500010E0C801A4960FB6F894DEBF0FBECDBF57
:100F6000DF91CF911F910F910895CF93DF9300D020
:100F700000D0CDB7DEB78CE081B98FEF82B98AB9E6
:100F80001BB884B915B887B918B80F2EFBE4EF2E3B
:100F9000F02DF12C00E010E054E640E030E020E0DD
:100FA00004C0E62EF72E082F192F652F742F832FDC
:100FB000922F2E2D3F2D402F512FA3D05E2D4F2D40
:100FC000302F212F611571058105910551F764E6D8
:100FD00070E080E090E02E2D3F2D402F512F91D0DA
:100FE00049015A016BE470E080E090E02E2D3F2D26
:100FF000402F512F86D0ADECB5E0BA83A983E2EC47
:10100000F5E0FC83EB831C9211968D929D92AD923C
:10101000BC92149715968D929D92AD92BC921897A2
:101020008CE192E01A969C938E93199710822183FB
:10103000328343835483258336834783508788EAEA
:1010400095E0928781876E2D7F2D802F912F70D80C
:1010500080D806D958DD7E0185E0E80EF11CDE015E
:1010600011966D01F601019111916F01D80115964C
:101070004D915D916D917C91189711968D919D91F7
:101080000D90BC91A02D481759076A077B0781F482
:10109000F80180810184F285E02D082E000C990B67
:1010A0000995D8018C93F801158216821782108653
:1010B000F80185819681A781B0850196A11DB11D9A
:1010C00085839683A783B087CE14DF0459F6809179
:1010D000F5058823E1F31092F505C1CF97FB072EA4
:1010E00016F4009406D077FD08D036D007FC05D062
:1010F0003EF4909581959F4F0895709561957F4F2F
:101100000895A1E21A2EAA1BBB1BFD010DC0AA1F48
:10111000BB1FEE1FFF1FA217B307E407F50720F060
:10112000A21BB30BE40BF50B661F771F881F991FDB
:101130001A9469F760957095809590959B01AC0124
:10114000BD01CF010895EE0FFF1F0024001C0BBE50
:101150000790F691E02D0994AA1BBB1B51E107C033
:10116000AA1FBB1FA617B70710F0A61BB70B881F37
:10117000991F5A95A9F780959095BC01CD010895C6
:101180008F929F92AF92BF92CF92DF92EF92FF9297
:10119000CF93DF93EC01688179818A819B8161150E
:1011A00071058105910521F464E279ED8BE597E005
:1011B0002DE133EF41E050E034D349015A019B0166
:1011C000AC01A7EAB1E449D36B017C01ACEEB4EF0A
:1011D000A50194014ED3DC01CB018C0D9D1DAE1DEC
:1011E000BF1DB7FF03C00197A109B0488883998349
:1011F000AA83BB839F77DF91CF91FF90EF90DF9021
:10120000CF90BF90AF909F908F900895B9CF80E01E
:1012100091E0B6CFA0E0B0E080930001909301018F
:10122000A0930201B09303010895FB01DC010D902E
:101230000020E9F7119701900D920020E1F7089541
:101240000F931F93CF93DF93CDB7DEB72E970FB6D3
:10125000F894DEBF0FBECDBF0D891E8986E08C835A
:101260001A8309838FEF9FE79E838D83AE01475ECC
:101270005F4F6F89788DCE01019610D0EF81F88590
:10128000E00FF11F10822E960FB6F894DEBF0FBE4E
:10129000CDBFDF91CF911F910F9108952F923F9273
:1012A0004F925F926F927F928F929F92AF92BF9276
:1012B000CF92DF92EF92FF920F931F93CF93DF9322
:1012C000CDB7DEB72B970FB6F894DEBF0FBECDBFFC
:1012D0006C017B018A01FC0117821682838181FFE8
:1012E000BFC1CE0101963C01F6019381F70193FD48
:1012F000859193FF81917F01882309F4ADC18532E7
:1013000039F493FD859193FF81917F01853221F41A
:10131000B60190E0D6D1E8CF912C212C312CFFE101
:10132000F315D8F08B3279F038F4803279F08332CB
:10133000A1F4232D20611DC08D3261F0803369F44A
:10134000232D216016C0832D8260382EE32DE460AA
:101350003E2E2AC0F32DF8601DC037FC2DC020EDB5
:10136000280F2A3040F08E32B9F436FC75C1232D97
:101370002064322E19C036FE06C08AE0989E200DE9
:101380001124922E11C0EAE02E9E200D1124222E4F
:10139000F32DF0623F2E08C08C3621F4832D806837
:1013A000382E02C0883641F4F70193FD859193FFF2
:1013B00081917F018111B3CF982F9F7D95549330F8
:1013C00028F40C5F1F4F9FE399830DC0833631F0E3
:1013D000833771F0833509F055C020C0F801808152
:1013E00089830E5F1F4F88248394912C530112C070
:1013F0002801F2E04F0E511CF801A080B18036FEAA
:1014000003C0692D70E002C06FEF7FEFC5014ED1C0
:101410004C018201F32DFF773F2E15C0280122E0F9
:10142000420E511CF801A080B18036FE03C0692D28
:1014300070E002C06FEF7FEFC5012DD14C01F32D9D
:10144000F0683F2E820133FC19C0822D90E088168F
:101450009906A0F4B60180E290E033D12A94F5CF4A
:10146000F50137FC859137FE81915F01B60190E06F
:1014700028D121102A9421E0821A91088114910424
:1014800079F7E1C0843611F0893639F5F80137FE75
:1014900007C060817181828193810C5F1F4F08C0FA
:1014A00060817181072E000C880B990B0E5F1F4F16
:1014B000F32DFF763F2E97FF09C09095809570958C
:1014C00061957F4F8F4F9F4FF0683F2E2AE030E0AD
:1014D000A30133D1882E861844C0853731F4232DDB
:1014E0002F7EB22E2AE030E025C0932D997FB92EB1
:1014F0008F36C1F018F4883579F0AEC0803719F016
:10150000883721F0A9C0E92FE061BE2EB4FE0DC0DE
:10151000FB2DF460BF2E09C034FE0AC0292F2660BF
:10152000B22E06C028E030E005C020E130E002C065
:1015300020E132E0F801B7FE07C06081718182814D
:1015400093810C5F1F4F06C06081718180E090E045
:101550000E5F1F4FA301F1D0882E8618FB2DFF7759
:101560003F2E36FE0DC0232D2E7FA22E891458F457
:1015700034FE0BC032FC09C0832D8E7EA82E05C020
:10158000B82CA32C03C0B82C01C0B92CA4FE0FC0EA
:10159000FE01E80DF11D8081803321F49A2D997EA2
:1015A000A92E09C0A2FE06C0B394B39404C08A2D2C
:1015B000867809F0B394A3FC10C0A0FE06C0B21454
:1015C00080F4280C922C9B180DC0B21458F4B6016C
:1015D00080E290E076D0B394F8CFB21418F42B18D0
:1015E00002C0982C212CA4FE0FC0B60180E390E02D
:1015F00068D0A2FE16C0A1FC03C088E790E002C03C
:1016000088E590E0B6010CC08A2D867851F0A1FEE5
:1016100002C08BE201C080E2A7FC8DE2B60190E03F
:1016200050D0891430F4B60180E390E04AD09A9407
:10163000F8CF8A94F301E80DF11D8081B60190E0A6
:1016400040D08110F6CF222009F44ECEB60180E2C0
:1016500090E037D02A94F7CFF6018681978102C0B7
:101660008FEF9FEF2B960FB6F894DEBF0FBECDBF66
:10167000DF91CF911F910F91FF90EF90DF90CF906E
:10168000BF90AF909F908F907F906F905F904F90A2
:101690003F902F900895FC0105906150704001101B
:1016A000D8F7809590958E0F9F1F0895FC0161508B
:1016B000704001900110D8F7809590958E0F9F1F74
:1016C00008950F931F93CF93DF93FB01238121FD97
:1016D00003C08FEF9FEF2CC022FF16C046815781B9
:1016E000248135814217530744F4A081B1819D01C3
:1016F0002F5F3F4F318320838C93268137812F5F6B
:101700003F4F3783268314C08B01EC01FB0100841B
:10171000F185E02D0995892BE1F6D80116968D917A
:101720009C911797019617969C938E931697CE01CE
:10173000DF91CF911F910F910895FA01AA272830C8
:1017400051F1203181F1E8946F936E7F6E5F7F4F8E
:101750008F4F9F4FAF4FB1E03ED0B4E03CD0670F0A
:10176000781F891F9A1FA11D680F791F8A1F911D5D
:10177000A11D6A0F711D811D911DA11D20D009F4AD
:1017800068943F912AE0269F11243019305D3193EF
:10179000DEF6CF010895462F4770405D4193B3E0D8
:1017A0000FD0C9F7F6CF462F4F70405D4A3318F07F
:1017B000495D31FD4052419302D0A9F7EACFB4E030
:1017C000A6959795879577956795BA95C9F70097E8
:1017D0006105710508959B01AC010A2E0694579589
:1017E000479537952795BA95C9F7620F731F841FE0
:1017F000951FA01D0895F999FECF92BD81BDF89A5D
:10180000992780B50895262FF999FECF1FBA92BD6A
:1018100081BD20BD0FB6F894FA9AF99A0FBE0196D1
:101820000895052E97FB16F400940FD057FD05D0B0
:1018300068DC07FC02D046F408C05095409530950E
:1018400021953F4F4F4F5F4F08959095809570952C
:1018500061957F4F8F4F9F4F08950FD0A59F900D9B
:10186000B49F900DA49F800D911D11240895B7FF82
:10187000F4CFF3DF821B930B0895A29FB001B39FB7
:10188000C001A39F700D811D1124911DB29F700D89
:0C189000811D1124911D0895F894FFCFD4
:10189C00010000002605330552056F057E058E05F7
:1018AC000000000000000079FBDFDEDCD8FFFF0049
:1018BC0000DBDBDBDBDBFFFF0000C0C0C0FFFFC0D9
:1018CC00C0C00000CEDFDBDBDBDBFB7300000303FF
:1018DC0003030303FFFF00007EFFC3C3C3C3FF7EEC
:1018EC0000003C7EDBDBDBFFFF00000000000000A3
:1018FC0000000000000000000040E0703F3F70E07E
:10190C00400000FFFF181818FFFF0000C0C0C0FF08
:10191C00FFC0C0C000007FFFCCCCCCFF7F000070AC
:10192C00F8CCCCCCFFFF00007FFFCCCCCCFF7F00F1
:10193C00000000000000000000000000000000DBC0
:10194C00DBDBDBDBFFFF0000C0C0C0FFFFC0C0C0A3
:10195C0000007FFFCCCCCCFF7F000003030303030C
:10196C0003FFFF0000030303030303FFFF0000C397
:10197C00C3C3FFFFC3C3C30000C3C3C3C3E77E3CE1
:10198C0000007FFFCCCCCCFF7F0000E0FC1E0303EB
:10199C001EFCE00000000000000000000000000041
:1019AC000000007FFFCCCCCCFF7F0000FFFF6070FD
:1019BC007060FFFF00001FDFD8DBDBDBFFFF0000E8
:1019CC00C3C3C3FFFFC3C3C30000FFFF1C3870E0D9
:1019DC00FFFF0000DBDBDBDBDBFFFF0000000000B8
:1019EC00000000000000000000DBDBDBDBDBFFFFA6
:1019FC000000FEFF03030303FFFE00007EFFCFDFAA
:101A0C00DBC3FF7E00007FFFCCCCCCFF7F000070DF
:101A1C00F8CCCCCCFFFF00007EFFC3C3C3C3FF7E5A
:101A2C00000000000000000000000000000040E08A
:101A3C00703F3F70E0400000C3C3C3C3E77E3C006F
:101A4C0000FFFF1C3870E0FFFF00007FFFCCCCCC08
:101A5C00FF7F0000DBDBDBDBDBFFFF000079FBDF64
:101A6C00DEDCD8FFFF0000C3C3C3C3E77E3C00002D
:101A7C00DBDBDBDBDBFFFF000079FBDFDEDCD8FF31
:101A8C00FF0000000000000000000000000000004B
:101A9C000000C0C0C0FFFFC0C0C00000FFFF1C386A
:101AAC0070E0FFFF0000DBDBDBDBDBFFFF0000FF98
:101ABC00FF60707060FFFF00007EFFC3C3C3C3FFF5
:101ACC007E0000D8D8D8D8D8FFFF00000000000056
:101ADC000000000000000000000000C0C0C0FFFFBC
:101AEC00C0C0C00000FFFF1C3870E0FFFF00007F8B
:101AFC00FFCCCCCCFF7F000079FBDFDEDCD8FFFF16
:101B0C00000079FBDFDEDCD8FFFF00007FFFCCCCD0
:101B1C00CCFF7F000000000000000000000000006F
:101B2C0000000000DBDBDBDBDBFFFF00000303035B
:101B3C00030303FFFF00003C7EDBDBDBFFFF000049
:101B4C003C7EDBDBDBFFFF0000C3C3C3FFFFC3C373
:101B5C00C30000FEFF03030303FFFE00007EFFCF64
:101B6C00DFDBC3FF7E00000000000000000000006F
:101B7C0000000000000000DBDBDBDBDBFFFF000014
:101B8C007EBDC3C3C3FFFF0000FEFF03030303FFBF
:101B9C00FE0000030303030303FFFF0000C3C3C3E2
:101BAC00C3E77E3C0000C3C3C3C3E77E3C00007E9A
:101BBC00FFC3C3C3C3FF7E00000000000000000091
:101BCC0000FFFF0000000000000000FFFF0000000D
:101BDC000000000000FFFF0000000000000000FFFC
:101BEC00FF00000000FFFF00000000FFFF000000EE
:101BFC0000FFFF000000000000424F4C53544552C0
:101C0C000041504154485900564143494C4C4154B1
:101C1C004500454E49474D41004F504151554500F7
:101C2C005245435245414E435900464F4D454E5443
:101C3C0000415252414E540051554942424C4500CC
:101C4C004F43434C554445003132333435363738E5
:101C5C00393031323334353637383930004142433C
:101C6C004445464748494A4B4C4D4E4F50515253B0
:101C7C005455565758595A001400A805B7058D00ED
:101C8C000100000001020408102040804E657874A9
:101C9C00204C6576656C3A20004C617374204C6561
:101CAC0076656C3A200025640048696768205363A8
:101CBC006F72653A20004C6576656C204F6E652E10
:101CCC002E2E004163636570743A2059656C6C6FFD
:101CDC007720202020202020202020427574746F33
:101CEC006E004E6578743A20426C75652020202079
:101CFC002020202020202020427574746F6E00500C
:101D0C007265737320746F20537461727400205366
:101D1C0070656C6C696E672047616D652100576555
:101D2C006C636F6D6520746F3A004E455854204CAF
:101D3C004556454C2E2E2E004C4556454C20434FB7
:101D4C004D504C4554450047414D45204F5645524A
:021D5C00000085
:00000001FF
