:1000000065C0000080C000007EC000007CC0000011
:100010007AC0000078C0000076C0000074C0000004
:1000200072C0000070C000006EC000006CC0000014
:100030006AC000009EC0000066C0000064C00000EE
:1000400062C0000060C000005EC000005CC0000034
:100050005AC0000058C0000056C0000054C0000044
:1000600052C0000050C000004EC000004CC0000054
:100070004AC0000048C0000046C0000044C0000064
:1000800042C0000040C000003EC0000058015E01B8
:100090006501680168016E017501A60181016D03AA
:1000A000100449047803B203AF034904EC03F503D9
:1000B000FD0349044904920425055305A104DB040A
:1000C000D804530515051D055305530511241FBEFE
:1000D000CFEFD0E4DEBFCDBF13E0A0E0B1E0E8EAAF
:1000E000FDE000E00BBF02C007900D92AE3DB107EE
:1000F000D9F724E0AEEDB3E001C01D92A435B207FC
:10010000E1F7FFD44FC67CCF60933C0370933D036F
:1001100080933E0390933F0360932E0470932F04CB
:10012000809330049093310408958BE08093810094
:100130008DE790E0909389008093880082E080931F
:100140006F00109285001092840080913C03909182
:100150003D03A0913E03B0913F0380932E04909302
:100160002F04A0933004B09331048FB780688FBF01
:1001700008951F920F920FB60F9211248F939F93A1
:10018000AF93BF9380912E0490912F04A0913004DF
:10019000B09131040197A109B10980932E04909385
:1001A0002F04A0933004B0933104892B8A2B8B2B1E
:1001B00099F481E08093320480913C0390913D0357
:1001C000A0913E03B0913F0380932E0490932F049F
:1001D000A0933004B0933104BF91AF919F918F9160
:1001E0000F900FBE0F901F901895181619065CF00F
:1001F0000895000021503109E1F74F5F5F4F8417E8
:10020000950719F4089540E050E027E033E0F1CF7E
:1002100012988BB9139A0000139882E090E0E5CF12
:10022000089581E0F5CF0895813118F48158F0CF19
:1002300008958155EDCF089584E690E0D6DF88E3F8
:10024000E7DF86E0E5DF8FE0E3DF81E0E1DF8AE002
:1002500090E0CBCF0895129A8BB9139A00001398AF
:1002600081E090E0C2CF08950F931F93CF93DF9367
:10027000182FEB01D6DF8881882351F001E0010FB0
:10028000812FD2DF8991E7DF102F88818111F6CF8E
:10029000DF91CF911F910F91089520B1207320938A
:1002A000FF038930910590F5FC01EA5BFF4FE1C443
:1002B00080910404843150F1B4DF4BC08091050477
:1002C000823308F446C0ADDF52C021112DC04FC0AB
:1002D000809102048E3160F1A4DF57C08091010447
:1002E0008E3108F452C09DDF5EC0809100048E31D3
:1002F00008F459C081E08093520493DF87E090E0D6
:10030000089520915204213009F45DC060910E01DE
:1003100070910F0181E0A8DF809104048F5F8093CA
:10032000040480E090E008957CDF83E090E008958D
:10033000609108017091090181E096DF80910204CB
:100340008F5F8093020484E090E0089588E090E05D
:10035000089560910C0170910D0181E085DF80911D
:1003600005048F5F8093050481E090E0089560911B
:100370000A0170910B0181E077DF809103048F5FA8
:100380008093030482E090E00895609106017091EB
:10039000070181E069DF809101048F5F8093010490
:1003A00085E090E00895609104017091050181E07D
:1003B0005BDF809100048F5F8093000481E0809375
:1003C000520486E090E00895A4D483709078992335
:1003D00024F401978C6F9F6F01960895FC010190A2
:1003E0000020E9F73197608311820895FB010190A5
:1003F0000020E9F73197E61BF70BE09328049F01F3
:1004000033271216130674F4FC01DB01280F391F81
:1004100081E050E041919D914913852FE217F30748
:10042000C9F7089581E008950F931F93CF93DF9349
:10043000CDB7DEB728970FB6F894DEBF0FBECDBF9D
:1004400088E0E0E4F3E0DE01119601900D928A95D8
:10045000E1F7BADF9093370480933604009709F0F0
:10046000EEC06CEE72E000EA12E09E01275F3F4FA3
:100470001CC08081809585B98D9188B98CEC9AE0FB
:100480000197F1F700C00000819185B92E173F0751
:1004900081F74150510921F0FE013196DB01E9CF8E
:1004A000615071090617170719F044E150E0F4CFC5
:1004B00015B818B8809136049091370481309105B1
:1004C000F1F0C1C08081809585B98D9188B98CEC9F
:1004D0009AE00197F1F700C00000819185B92E17CD
:1004E0003F0781F74150510921F0FE013196DB01B0
:1004F000E9CF615071090617170741F40AC06AE98C
:1005000072E00EE412E09E01275F3F4F44E150E0AD
:10051000ECCF15B818B8809136049091370482302A
:10052000910509F094C01DC08081809585B98D9199
:1005300088B98CEC9AE00197F1F700C00000819136
:1005400085B9E217F30781F74150510921F0FE0107
:100550003196DB01E9CF615071090617170741F4A5
:100560000AC061E572E005E012E09E01275F3F4F9F
:1005700044E150E0ECCF15B818B880913604909162
:10058000370483309105F1F065C08081809585B98D
:100590008D9188B98CEC9AE00197F1F700C00000CA
:1005A000819185B9E217F30781F74150510921F094
:1005B000FE013196DB01E9CF61507109061717077B
:1005C00041F40AC068E072E00CEB11E09E01275F85
:1005D0003F4F44E150E0ECCF15B818B88091360495
:1005E00090913704049741F51DC08081809585B9AD
:1005F0008D9188B98CEC9AE00197F1F700C000006A
:10060000819185B9E217F30781F74150510921F033
:10061000FE013196DB01E9CF61507109061717071A
:1006200041F40AC06DEB71E008E511E09E01275F1F
:100630003F4F44E150E0ECCF15B818B80EC0019719
:1006400009F069CF5CCF029709F097CF8ACF039763
:1006500029F6B8CF049781F7E5CF28960FB6F8941E
:10066000DEBF0FBECDBFDF91CF911F910F910895D7
:10067000EAE7F0E0808181688083ECE7F0E0808148
:1006800080648083089580E480937C00EAE7F0E052
:10069000808180648083808184FFFDCFE8E7F0E083
:1006A0008081918190932704809326041182108287
:1006B0008091260490912704089520B12071209301
:1006C0002A0430B13072309329048C30910508F03F
:1006D00010C1FC01E15BFF4FCCC2209152042223E8
:1006E00009F40FC120914C04222309F491C008950C
:1006F000CADF80932B0420912A042111FDC0992781
:1007000020911F0330912003A9014E5C5F4F4817D1
:10071000590734F480912D048A3108F4A1C0B9C07E
:10072000245631098217930734F480912D048A31BD
:1007300008F48EC0AEC080912904882309F4A9C0B2
:10074000E0912D04F0E0EF5DFC4F60816093350493
:1007500088E394E043DE65DD84E090E008952111B4
:10076000D0C063C08091360490913704009741F463
:1007700063E173E088E394E039DE8093250427C0C9
:100780008130910541F46BE073E088E394E02EDE64
:10079000809325041CC08230910541F464E073E02D
:1007A00088E394E023DE8093250411C0039741F48D
:1007B0006DEF72E088E394E019DE8093250407C0B2
:1007C00063EF72E088E394E011DE8093250480916A
:1007D000250481117CC06BC080912204843608F40A
:1007E00066C01FDD8CE090E0089580912304909115
:1007F0002404C2970CF46BC03BC080912104823367
:1008000008F47DC081E080934C0480E090E008957E
:10081000DBDD909337048093360481E090E0089507
:1008200000DD02DE82E090E00895E0912D04F0E02A
:10083000EF5DFC4F60816093350488E394E0CEDD8A
:1008400080912C048F5F80932C0486E090E00895C3
:100850008823C9F0815080932D048BE090E00895A7
:100860008931A0F48F5F80932D048AE090E0089591
:10087000D8DC80E0D9DC809121048F5F8093210453
:1008800089E090E008958BE090E008958AE090E0A0
:10089000089580912C048F5FC7DCE0912D04F0E077
:1008A000EF5DFC4F8081D7DC83E090E0089560919C
:1008B0001D0370911E0381E0D7DC809122048F5FBD
:1008C000809322041092520487E090E00895609192
:1008D0001B0370911C0381E0C7DC8091230490917D
:1008E00024040196909324048093230488E090E0EC
:1008F000089580E090E0089585E090E0089580E01C
:1009000090E0089520B1207120930A0430B1307234
:10091000309309048B30910508F0EDC0FC01E55AD5
:10092000FF4FA7C120914C04222309F4E9C080E0C5
:100930007BDC4ADD909351048093500481E090E089
:100940000895A1DE80932B0420910A042111D6C0C2
:10095000992720913C0130913D01A9014E5C5F4FE8
:100960004817590734F4809120048A3108F48DC067
:100970009AC0245631098217930734F480912004D9
:100980008A3108F47AC08FC080910904882309F461
:100990008AC0E0912004F0E0E25CFE4F6081609349
:1009A00033048BE094E01ADD3CDC84E090E00895B1
:1009B0002111A6C04FC0809150049091510400971E
:1009C00041F460E371E08BE094E010DD8093080473
:1009D00027C08130910541F468E271E08BE094E03A
:1009E00005DD809308041CC08230910541F461E26A
:1009F00071E08BE094E0FADC8093080411C0039767
:100A000041F46AE171E08BE094E0F0DC809308044B
:100A100007C060E171E08BE094E0E8DC80930804BB
:100A200080910804811159C04AC08091060484361F
:100A300008F445C08BE090E0089580910704843667
:100A400008F44BC08BE090E00895EBDBEDDC82E036
:100A500090E00895E0912004F0E0E25CFE4F6081B8
:100A6000609333048BE094E0B9DC80911F048F5FC6
:100A700080931F0486E090E00895882371F08150F0
:100A8000809320048AE090E00895893148F48F5FD4
:100A90008093200489E090E008958AE090E0089532
:100AA00089E090E00895E0912004F0E0E25CFE4FE0
:100AB000608170E081E0D8DB83E090E00895609190
:100AC0003A0170913B0181E0CFDB809106048F5F9A
:100AD0008093060487E090E008956091380170915A
:100AE000390181E0C1DB809107048F5F80930704A7
:100AF00088E090E0089580E090E0089585E090E03F
:100B00000895CF93DF9300D000D000D0CDB7DEB7EB
:100B10008CE081B98FEF82B98AB91BB884B915B856
:100B200087B918B886E0E8E4F3E0DE011196019099
:100B30000D928A95E1F7E4EFF3E0108281E090E016
:100B4000A0E0B0E081839283A383B48385839683FE
:100B5000A783B0872DE431E032872187E9EEF3E007
:100B6000108281839283A383B48385839683A78332
:100B7000B0872DE533E032872187EEEDF3E0108278
:100B800081839283A383B48385839683A783B0876D
:100B900082E894E09287818764E670E080E090E0EC
:100BA000B3DAC3DA49DB64DD7E0187E0E80EF11CCD
:100BB000DE0111966D01F601019111916F01D801CD
:100BC00015964D915D916D917C91189711968D912F
:100BD0009D910D90BC91A02D481759076A077B077E
:100BE00081F4F80180810184F285E02D082E000C4B
:100BF000990B0995D8018C93F801158216821782FA
:100C00001086F80185819681A781B0850196A11D86
:100C1000B11D85839683A783B087EC14FD0459F634
:100C2000809132048823E1F310923204C1CFA1E213
:100C30001A2EAA1BBB1BFD010DC0AA1FBB1FEE1F56
:100C4000FF1FA217B307E407F50720F0A21BB30BA1
:100C5000E40BF50B661F771F881F991F1A9469F71D
:100C600060957095809590959B01AC01BD01CF0179
:100C70000895EE0FFF1F0024001C0BBE0790F69195
:100C8000E02D09948F929F92AF92BF92CF92DF9204
:100C9000EF92FF92CF93DF93EC01688179818A8193
:100CA0009B81611571058105910521F464E279ED5F
:100CB0008BE597E02DE133EF41E050E038D049017A
:100CC0005A019B01AC01A7EAB1E44DD06B017C0154
:100CD000ACEEB4EFA501940152D0DC01CB018C0D38
:100CE0009D1DAE1DBF1DB7FF03C00197A109B048F0
:100CF00088839983AA83BB839F77DF91CF91FF90ED
:100D0000EF90DF90CF90BF90AF909F908F9008951D
:100D1000B9CF80E091E0B6CFA0E0B0E080930001D1
:100D200090930101A0930201B09303010895052E51
:100D300097FB16F400940FD057FD05D078DF07FC21
:100D400002D046F408C050954095309521953F4F0C
:100D50004F4F5F4F089590958095709561957F4FA7
:100D60008F4F9F4F08950FD0A59F900DB49F900D6A
:100D7000A49F800D911D11240895B7FFF4CFF3DFD8
:100D8000821B930B0895A29FB001B39FC001A39F44
:100D9000700D811D1124911DB29F700D811D1124B4
:080DA000911D0895F894FFCFA6
:100DA800010000004E035B037A039703A603B60312
:100DB8005245435245414E435900464F4D454E54C6
:100DC80000415252414E540051554942424C45004F
:100DD8004F43434C55444500C203D3038D00414261
:100DE800434445464748494A4B4C4D4E4F50515253
:100DF800535455565758595A000000000000000037
:100E080040E0703F3F70E0400000C3C3C3C3E77ECB
:100E18003C0000FFFF1C3870E0FFFF00007FFFCCA4
:100E2800CCCCFF7F0000DBDBDBDBDBFFFF000079E6
:100E3800FBDFDEDCD8FFFF0000C3C3C3C3E77E3C93
:100E48000000DBDBDBDBDBFFFF000079FBDFDEDC48
:100E5800D8FFFF00000000000000000000000000B4
:100E680000000000C0C0C0FFFFC0C0C00000FFFFFE
:100E78001C3870E0FFFF0000DBDBDBDBDBFFFF0083
:100E880000FFFF60707060FFFF00007EFFC3C3C3F8
:100E9800C3FF7E0000D8D8D8D8D8FFFF00000000D4
:100EA80000000000000000000000000000C0C0C0FA
:100EB800FFFFC0C0C00000FFFF1C3870E0FFFF004C
:100EC800007FFFCCCCCCFF7F000079FBDFDEDCD8D5
:100ED800FFFF000079FBDFDEDCD8FFFF00007FFFAB
:100EE800CCCCCCFF7F000000000000000000000018
:100EF800000000000000DBDBDBDBDBFFFF000003A2
:100F08000303030303FFFF00003C7EDBDBDBFFFF83
:100F180000003C7EDBDBDBFFFF0000C3C3C3FFFF39
:100F2800C3C3C30000FEFF03030303FFFE00007EEC
:100F3800FFCFDFDBC3FF7E000000000000000000E1
:100F4800000000000000000000DBDBDBDBDBFFFF54
:100F580000007EBDC3C3C3FFFF0000FEFF03030301
:100F680003FFFE0000030303030303FFFF0000C3A6
:100F7800C3C3C3E77E3C0000C3C3C3C3E77E3C00D2
:100F8800007EFFC3C3C3C3FF7E0000000000000053
:100F98000000005245435245414E435900464F4DCB
:100FA800454E5400415252414E5400515549424217
:100FB8004C45004F43434C55444500C203D3038D71
:100FC800004142434445464748494A4B4C4D4E4FE1
:100FD800505152535455565758595A000100000061
:100FE8000102040810204080F403E903DE034C6585
:100FF80076656C204F6E652E2E2E004163636570FA
:10100800743A2059656C6C6F7720202020202020AE
:10101800202020427574746F6E004E6578743A20F3
:10102800426C7565202020202020202020202020B0
:10103800427574746F6E00507265737320746F20FC
:10104800537461727400205370656C6C696E67200C
:1010580047616D65210057656C636F6D6520746F1E
:101068003A00436F6E67726174756C6174696F6E74
:0E10780073210047616D65204F76657221007F
:00000001FF
