:100000005BC0000076C0000074C0000072C0000039
:1000100070C000006EC000006CC000006AC000002C
:1000200068C0000066C0000064C0000062C000003C
:1000300060C0000094C000005CC000005AC0000016
:1000400058C0000056C0000054C0000052C000005C
:1000500050C000004EC000004CC000004AC000006C
:1000600048C0000046C0000044C0000042C000007C
:1000700040C000003EC000003CC000003AC000008C
:1000800038C0000036C0000034C00000E2025D034A
:100090007503EC02230320037503B103BA03750350
:1000A00075036903710373037503AA03CB03830309
:1000B000B103BA03A003960311241FBECFEFD0E40F
:1000C000DEBFCDBF13E0A0E0B1E0E8EDFAE000E074
:1000D0000BBF02C007900D92AC32B107D9F723E0F5
:1000E000ACE2B3E001C01D92AB36B207E1F757D3E3
:1000F000F1C486CF6093F2027093F3028093F4020E
:100100009093F50260934B0370934C0380934D03DF
:1001100090934E0308958BE0809381008DE790E0EB
:10012000909389008093880082E080936F00109202
:100130008500109284008091F2029091F302A091C8
:10014000F402B091F50280934B0390934C03A0937B
:100150004D03B0934E038FB780688FBF08951F92F1
:100160000F920FB60F9211248F939F93AF93BF936B
:1001700080914B0390914C03A0914D03B0914E039D
:100180000197A109B10980934B0390934C03A0936D
:100190004D03B0934E03892B8A2B8B2B99F481E06E
:1001A00080934F038091F2029091F302A091F402A8
:1001B000B091F50280934B0390934C03A0934D03B1
:1001C000B0934E03BF91AF919F918F910F900FBE4F
:1001D0000F901F901895181619065CF008950000EE
:1001E00021503109E1F74F5F5F4F8417950719F4EC
:1001F000089540E050E027E033E0F1CF12988BB94A
:10020000139A0000139882E090E0E5CF089581E012
:10021000F5CF0895813118F48158F0CF08958155B4
:10022000EDCF089584E690E0D6DF88E3E7DF86E04F
:10023000E5DF8FE0E3DF81E0E1DF8AE090E0CBCF34
:100240000895129A8BB9139A0000139881E090E0F8
:10025000C2CF08950F931F93CF93DF93182FEB0115
:10026000D6DF8881882351F001E0010F812FD2DF92
:100270008991E7DF102F88818111F6CFDF91CF912F
:100280001F910F91089520B1207120936803813050
:10029000910569F08230910579F0892B91F441E064
:1002A00030E0211101C040E0842F932F0CC02111B8
:1002B0001DC082E090E0089520916A03213049F446
:1002C000089580E090E0009721F08130910571F071
:1002D000089580916A03811110C0609104017091AA
:1002E000050181E0B7DF80E090E0089590DF81E0D4
:1002F00080936A0381E090E0089580E090E00895A3
:10030000A0D365E070E004D301970895FC0101904B
:100310000020E9F73197608311820895FB01019075
:100320000020E9F73197E61BF70BE09345039F01A7
:1003300033271216130674F4FC01DB01280F391F52
:1003400081E050E041919D914913852FE217F30719
:10035000C9F7089581E008950F931F93CF93DF931A
:10036000CDB7DEB728970FB6F894DEBF0FBECDBF6E
:1003700088E0E6EFF2E0DE01119601900D928A9599
:10038000E1F78091510390915203009751F56AEB88
:1003900072E005E512E09E01275F3F4F1CC080819F
:1003A000809585B98D9188B98CEC9AE00197F1F729
:1003B00000C00000819185B9E217F30781F7415031
:1003C000510921F0FE013196DB01E9CF615071093D
:1003D0000617170719F047E050E0F4CF15B818B822
:1003E000AFC08130910551F566E672E001E012E0A0
:1003F0009E01275F3F4F1CC08081809585B98D91FC
:1004000088B98CEC9AE00197F1F700C00000819167
:1004100085B9E217F30781F74150510921F0FE0138
:100420003196DB01E9CF615071090617170719F002
:1004300047E050E0F4CF15B818B882C0823091057B
:1004400051F56BE172E006EB11E09E01275F3F4F33
:100450001CC08081809585B98D9188B98CEC9AE01B
:100460000197F1F700C00000819185B92E173F0771
:1004700081F74150510921F0FE013196DB01E9CFAE
:10048000615071090617170719F047E050E0F4CFE3
:1004900015B818B855C0039741F06AE671E005E059
:1004A00011E09E01275F3F4F46C060ED71E00BE613
:1004B00011E09E01275F3F4F1CC08081809585B968
:1004C0008D9188B98CEC9AE00197F1F700C000009B
:1004D000819185B92E173F0781F74150510921F0CD
:1004E000FE013196DB01E9CF61507109061717074C
:1004F00019F047E050E0F4CF15B818B821C080815A
:10050000809585B98D9188B98CEC9AE00197F1F7C7
:1005100000C00000819185B92E173F0781F7415037
:10052000510921F0FE013196DB01E9CF61507109DB
:100530000617170719F047E050E0F4CF15B818B8C0
:1005400028960FB6F894DEBF0FBECDBFDF91CF91D6
:100550001F910F910895EAE7F0E080818168808320
:10056000ECE7F0E0808180648083089580E48093EC
:100570007C00EAE7F0E0808180648083808184FFF2
:10058000FDCFE8E7F0E08081918190934403809370
:100590004303118210828091430390914403089594
:1005A000CF93DF93FC0190B190719093470380B19A
:1005B000807280934603EB30F10508F08AC0EA5B55
:1005C000FF4FDBC191E080E020916A03211101C05F
:1005D00090E0C92FD82F73C0C9DF809348032091C2
:1005E00047032111D6C099272091F0023091F102E2
:1005F000A9014E5C5F4F4817590734F480914A03B4
:100600008A3108F49DC071C02456310982179307BE
:1006100034F480914A038A3108F488C066C080911E
:100620004603882309F461C0E0914A03F0E0EF52E9
:10063000FD4F60816093500383E593E067DE8AC0DD
:100640009111A7C060C0809151039091520300970F
:1006500041F469EC72E083E593E060DE809342034D
:1006600027C08130910541F461EC72E083E593E0AD
:1006700055DE809342031CC08230910541F46AEB41
:1006800072E083E593E04ADE8093420311C0039752
:1006900041F463EB72E083E593E040DE8093420334
:1006A00007C069EA72E083E593E038DE8093420395
:1006B0008091420381115EC054C0C2E0D0E0CB30D3
:1006C000D10520F4FE01EF5AFF4F57C1C0E0D0E042
:1006D00062C016DE9093520380935103C0E0D0E0D5
:1006E0005AC00EDE58C038DE56C0809149038F5F75
:1006F00091DDE0914A03F0E0EF52FD4F8081A1DDF2
:10070000C3E0D0E048C0E0914A03F0E0EF52FD4F73
:1007100060816093500383E593E0F8DD80914903A5
:100720008F5F80934903C6E0D0E035C080914A03D3
:10073000882349F1815080934A03CAE0D0E02BC05E
:1007400080914A03893110F58F5F80934A03C9E095
:10075000D0E021C05CDD83E593E073DDC4E0D0E050
:100760001AC06091EE027091EF0281E073DDC7E084
:10077000D0E011C06091EC027091ED0281E06ADD81
:10078000C8E0D0E008C0CAE0D0E005C0C9E0D0E0D1
:1007900002C0C5E0D0E0CE01DF91CF910895CF93A4
:1007A000DF9300D000D0CDB7DEB78CE081B98FEFFA
:1007B00082B98AB91BB884B915B887B918B80F2E91
:1007C000F4E6EF2EF02DF12C00E010E059E140E0CE
:1007D00030E020E004C0E62EF72E082F192F652FF9
:1007E000742F832F922F2E2D3F2D402F512FA3D0CA
:1007F0005E2D4F2D302F212F61157105810591053B
:1008000051F769E170E080E090E02E2D3F2D402F00
:10081000512F91D049015A0164E670E080E090E0E8
:100820002E2D3F2D402F512F86D0A7E3B3E0BA8362
:10083000A983ECE2F3E0FC83EB831C9211968D928A
:100840009D92AD92BC92149715968D929D92AD9209
:10085000BC92189783E491E01A969C938E93199713
:1008600010822183328343835483258336834783D5
:10087000508780ED92E0928781876E2D7F2D802FAB
:10088000912F38DC48DCCEDC66DE7E0185E0E80EA8
:10089000F11CDE0111966D01F601019111916F01BC
:1008A000D80115964D915D916D917C911897119697
:1008B0008D919D910D90BC91A02D481759076A0705
:1008C0007B0781F4F80180810184F285E02D082EF8
:1008D000000C990B0995D8018C93F80115821682AA
:1008E00017821086F80185819681A781B0850196CF
:1008F000A11DB11D85839683A783B087CE14DF0425
:1009000059F680914F038823E1F310924F03C1CF32
:1009100097FB072E16F4009406D077FD08D036D04A
:1009200007FC05D03EF4909581959F4F08957095F2
:1009300061957F4F0895A1E21A2EAA1BBB1BFD01F2
:100940000DC0AA1FBB1FEE1FFF1FA217B307E407AE
:10095000F50720F0A21BB30BE40BF50B661F771F06
:10096000881F991F1A9469F76095709580959095E6
:100970009B01AC01BD01CF010895EE0FFF1F0024C4
:10098000001C0BBE0790F691E02D0994AA1BBB1B1F
:1009900051E107C0AA1FBB1FA617B70710F0A61B7F
:1009A000B70B881F991F5A95A9F780959095BC01A0
:1009B000CD0108958F929F92AF92BF92CF92DF9216
:1009C000EF92FF92CF93DF93EC01688179818A8166
:1009D0009B81611571058105910521F464E279ED32
:1009E0008BE597E02DE133EF41E050E038D049014D
:1009F0005A019B01AC01A7EAB1E44DD06B017C0127
:100A0000ACEEB4EFA501940152D0DC01CB018C0D0A
:100A10009D1DAE1DBF1DB7FF03C00197A109B048C2
:100A200088839983AA83BB839F77DF91CF91FF90BF
:100A3000EF90DF90CF90BF90AF909F908F900895F0
:100A4000B9CF80E091E0B6CFA0E0B0E080930001A4
:100A500090930101A0930201B09303010895052E24
:100A600097FB16F400940FD057FD05D064DF07FC08
:100A700002D046F408C050954095309521953F4FDF
:100A80004F4F5F4F089590958095709561957F4F7A
:100A90008F4F9F4F08950FD0A59F900DB49F900D3D
:100AA000A49F800D911D11240895B7FFF4CFF3DFAB
:100AB000821B930B0895A29FB001B39FC001A39F17
:100AC000700D811D1124911DB29F700D811D112487
:080AD000911D0895F894FFCF79
:100AD80001000000FE0200000000000000000040CD
:100AE800E0703F3F70E0400000C3C3C3C3E77E3CF3
:100AF8000000FFFF1C3870E0FFFF00007FFFCCCC38
:100B0800CCFF7F0000DBDBDBDBDBFFFF000079FBDA
:100B1800DFDEDCD8FFFF0000C3C3C3C3E77E3C00B1
:100B280000DBDBDBDBDBFFFF000079FBDFDEDCD893
:100B3800FFFF0000000000000000000000000000AF
:100B48000000000000C0C0C0FFFFC0C0C00000FF20
:100B5800FF1C3870E0FFFF0000DBDBDBDBDBFFFFA7
:100B68000000FFFF60707060FFFF00007EFFC3C3DE
:100B7800C3C3FF7E0000D8D8D8D8D8FFFF00000034
:100B8800000000000000000000000000000000005D
:100B9800C0C0C0FFFFC0C0C00000FFFF1C3870E02D
:100BA800FFFF00007FFFCCCCCCFF7F000079FBDF8C
:100BB800DEDCD8FFFF000079FBDFDEDCD8FFFF00BA
:100BC800007FFFCCCCCCFF7F0000000000000000BD
:100BD8000000000000000000000000DBDBDBDBDBC6
:100BE800FFFF0000030303030303FFFF00003C7E35
:100BF800DBDBDBFFFF00003C7EDBDBDBFFFF000015
:100C0800C3C3C3FFFFC3C3C30000FEFF0303030343
:100C1800FFFE00007EFFCFDFDBC3FF7E0000000089
:100C2800000000000000000000000000000000DBE1
:100C3800DBDBDBDBFFFF00007EBDC3C3C3FFFF00C0
:100C480000FEFF03030303FFFE0000030303030387
:100C580003FFFF0000C3C3C3C3E77E3C0000C3C358
:100C6800C3C3E77E3C00007EFFC3C3C3C3FF7E004F
:100C78000000000000000000005245435245414E6C
:100C8800435900464F4D454E5400415252414E542F
:100C98000051554942424C45004F43434C55444549
:100CA800004142434445464748494A4B4C4D4E4F04
:100CB800505152535455565758595A000F03200350
:100CC8008D00010000000102040810204080566FCA
:100CD800636162756C6172792047616D65210043BB
:100CE8006F6E67726174756C6174696F6E732100E1
:0C0CF80047616D65204F76657221000099
:00000001FF
