:100000006AC0000086C0000084C0000082C00000FA
:1000100080C000007EC000007CC000007AC00000EC
:1000200078C0000076C0000074C0000072C00000FC
:1000300070C00000A4C000006CC000006AC00000D6
:1000400068C0000066C0000064C0000062C000001C
:1000500060C000005EC000005CC000005AC000002C
:1000600058C0000056C0000054C0000052C000003C
:1000700050C000004EC000004CC000004AC000004C
:1000800048C0000046C0000044C000005B0162019F
:1000900069016C016C0172017901AC017F01D1032E
:1000A0007B049004DB031304100490044D045404F7
:1000B000600466046C04900490047A0587048D043F
:1000C0009004C8047A059E04CC04DC04EF041F05E8
:1000D0004E05BD04B20411241FBECFEFD0E4DEBF35
:1000E000CDBF13E0A0E0B1E0ECE8F3E100E00BBF2E
:1000F00002C007900D92AC3DB107D9F724E0ACEDFA
:10010000B3E001C01D92A732B207E1F7FFD40C940F
:10011000C40976CF60930A0370930B0380930C039A
:1001200090930D03609308047093090480930A046C
:1001300090930B0408958BE0809381008DE790E00D
:10014000909389008093880082E080936F001092E2
:1001500085001092840080910A0390910B03A09176
:100160000C03B0910D038093080490930904A093AD
:100170000A04B0930B048FB780688FBF08951F9255
:100180000F920FB60F9211248F939F93AF93BF934B
:100190008091080490910904A0910A04B0910B0485
:1001A0000197A109B1098093080490930904A093D1
:1001B0000A04B0930B04892B8A2B8B2B99F481E0D2
:1001C00080930C0480910A0390910B03A0910C037F
:1001D000B0910D038093080490930904A0930A043E
:1001E000B0930B04BF91AF919F918F910F900FBE71
:1001F0000F901F901895181619065CF008950000CE
:1002000021503109E1F74F5F5F4F8417950719F4CB
:10021000089540E050E027E033E0F1CF12988BB929
:10022000139A0000139882E090E0E5CF089581E0F2
:10023000F5CF0895813118F48158F0CF0895815594
:10024000EDCF089584E690E0D6DF88E3E7DF86E02F
:10025000E5DF8FE0E3DF81E0E1DF8AE090E0CBCF14
:100260000895129A8BB9139A0000139881E090E0D8
:10027000C2CF08951F93CF93DF93FB019081992301
:1002800051F0EB0111E0180FD5DF8991EADF812FE2
:1002900098819111F7CFDF91CF911F91089520B1EF
:1002A00020732093F2038930910508F058C0FC01B7
:1002B000EA5BFF4FD4C48091F703843108F44FC048
:1002C000B6DF5BC08091F803823308F456C0AFDF1D
:1002D00062C0211126C05FC08091F5038E3128F1E4
:1002E000A6DF67C08091F4038E3108F462C09FDFFF
:1002F0006EC08091F3038E3108F469C024C0209150
:100300002604213009F470C01092F8031092F7030C
:100310001092F6031092F5031092F4031092F30377
:100320001EC085DF83E090E0089560910801709120
:10033000090181E09FDF8091F5038F5F8093F503D2
:1003400084E090E0089581E0809326041092FC03FD
:100350006EDF87E090E0089588E090E00895609176
:100360000E0170910F0181E085DF8091F7038F5FAF
:100370008093F70380E090E0089560910C01709104
:100380000D0181E077DF8091F8038F5F8093F803A0
:1003900081E090E0089560910A0170910B0181E085
:1003A00069DF8091F6038F5F8093F60382E090E02F
:1003B0000895609106017091070181E05BDF8091F3
:1003C000F4038F5F8093F40385E090E008956091DB
:1003D00004017091050181E04DDF8091F3038F5F8F
:1003E0008093F30386E090E00895FB0101900020E4
:1003F000E9F73197E61BF70BE09302049F013327DF
:100400001216130674F4FC01DB01280F391F81E07A
:1004100050E041919D914913852FE217F307C9F7E9
:10042000089581E008956BD483709078992324F423
:1004300001978C6F9F6F01960895FC010190002039
:10044000E9F731976083118208950F931F93CF933B
:10045000DF93CDB7DEB728970FB6F894DEBF0FBE97
:10046000CDBF88E0EEE0F3E0DE01119601900D9241
:100470008A95E1F7D8DF90930F0480930E04892BBF
:1004800009F022C163EA72E007E512E09E01275FEE
:100490003F4F25C08081809585B98D9188B98CECBE
:1004A0009AE00197F1F700C00000819185B92E17FD
:1004B0003F0781F74F5F5F4F8091E7029091E8021D
:1004C000481759071CF006C040E050E0FE01319685
:1004D000DB01E0CF615071090617170741F08091E9
:1004E000E7029091E8021816190674F3F3CF15B8D5
:1004F00018B8EAC08081809585B98D9188B98CEC57
:100500009AE00197F1F700C00000819185B92E179C
:100510003F0781F74F5F5F4F8091E7029091E802BC
:10052000481759071CF006C040E050E0FE01319624
:10053000DB01E0CF615071090617170741F0809188
:10054000E7029091E8021816190674F3F3CF15B874
:1005500018B880910E0490910F0482309105E9F54E
:100560002AC0029709F0C0C026C08081809585B955
:100570008D9188B98CEC9AE00197F1F700C00000EA
:10058000819185B92E173F0781F74F5F5F4F8091AB
:10059000E7029091E802481759071CF006C040E0B6
:1005A00050E0FE013196DB01E0CF61507109601728
:1005B000710741F40FC068E072E00CEB11E09E019E
:1005C000275F3F4F8091E7029091E80218161906C5
:1005D00034F3EBCF15B818B887C0039709F08DC076
:1005E00026C08081809585B98D9188B98CEC9AE080
:1005F0000197F1F700C00000819185B9E217F30778
:1006000081F74F5F5F4F8091E7029091E8024817B2
:1006100059071CF006C040E050E0FE013196DB01B6
:10062000E0CF615071096017710741F40FC06FEBA3
:1006300071E003E711E09E01275F3F4F8091E702E1
:100640009091E8021816190634F3EBCF15B818B8D4
:1006500054C00497B1F526C08081809585B98D91ED
:1006600088B98CEC9AE00197F1F700C00000819105
:1006700085B9E217F30781F74F5F5F4F8091E7027B
:100680009091E802481759071CF006C040E050E07E
:10069000FE013196DB01E0CF6150710906171707A3
:1006A00041F40FC064E771E00FE011E09E01275FA5
:1006B0003F4F8091E7029091E8021816190634F333
:1006C000EBCF15B818B820C080910E0490910F049C
:1006D0008130910509F045CF61E572E005E012E057
:1006E0009E01275F3F4F2BCF80910E0490910F0406
:1006F0008330910509F0ADCF9ACF80910E0490918F
:100700000F040497F1F6CECF28960FB6F894DEBF0B
:100710000FBECDBFDF91CF911F910F910895EAE7F2
:10072000F0E0808181688083ECE7F0E08081806484
:100730008083089580E480937C00EAE7F0E0808184
:1007400080648083808184FFFDCFE8E7F0E08081D2
:100750009181909301048093000411821082809112
:1007600000049091010408950F931F93CF93DF939A
:10077000CDB7DEB7A4970FB6F894DEBF0FBECDBFDE
:100780008C0180B180718093040490B19072909339
:1007900003040E30110508F0A8C1F801E15BFF4F1A
:1007A0005EC291E080E020912604211101C090E01A
:1007B000092F182FA2C0BEDF8093050420910404E6
:1007C000211196C199272091ED023091EE02A901E5
:1007D0004E5C5F4F4817590734F4809107048A3103
:1007E00008F4CBC09DC0245631098217930734F416
:1007F000809107048A3108F4B5C092C08091030447
:10080000882309F48DC0E0910704F0E0E151FD4F29
:10081000608160930D0470E080E194E00EDEB8C06A
:10082000811168C18BC080910E0490910F040097D4
:1008300041F46AEC72E080E194E0D7DD8093FF033D
:1008400027C08130910541F462EC72E080E194E0D0
:10085000CCDD8093FF031CC08230910541F46BEB2B
:1008600072E080E194E0C1DD8093FF0311C0039743
:1008700041F464EB72E080E194E0B7DD8093FF0324
:1008800007C06AEA72E080E194E0AFDD8093FF0385
:100890008091FF03811190C07FC08091FD0382335E
:1008A00008F47AC0C4DC9BC08091FE03823308F454
:1008B00083C0BDDC8091FC038F5F8093FC038FC0FD
:1008C0008091FA03823308F48AC0B9C08091F90399
:1008D0008E3108F4B4C0E2C08091FF03882331F068
:1008E00081E08093260400E010E004C11092260409
:1008F00000E010E0FFC002E010E00E30110520F42F
:10090000F801E35AFF4FABC100E010E0F3C08BDD0C
:1009100090930F0480930E04EDC089DC96DDEAC04D
:10092000809106048F5F86DCE0910704F0E0E151DE
:10093000FD4F808196DC03E010E0DCC0E09107040D
:10094000F0E0E151FD4F608160930D0470E080E1C3
:1009500094E073DD809106048F5F8093060406E0C7
:1009600010E0C8C080910704882309F4B8C0815002
:10097000809307040DE010E0BDC080910704893129
:1009800008F0B0C08F5F809307040CE010E0B2C0A5
:100990004EDC04E010E0AEC06091EB027091EC021E
:1009A00081E068DC8091FD038F5F8093FD031092EE
:1009B000FF0307E010E09EC06091E9027091EA0237
:1009C00081E058DC8091FE038F5F8093FE0381E01D
:1009D000809326048093FF0308E010E08BC0809191
:1009E000FF03882371F066E173E081E043DC8DE072
:1009F00021DCE091FC03F0E0EE52FD4F808131DC20
:100A00000DC063E273E081E035DC8DE013DCE09142
:100A1000FC03F0E0EE52FD4F808123DC6091FC038B
:100A20008091FB03861718F480E190E064D48091F4
:100A3000FA038F5F8093FA0309E010E05BC080E166
:100A400090E051D41F928F9380E393E09F938F9314
:100A50008E010F5D1F4F1F930F936AD18DE0E3E36B
:100A6000F3E0DE01119601900D928A95E1F7B8014D
:100A7000CE01019652D1BE016F5F7F4F81E0FADB5C
:100A80008091F9038F5F8093F9030F900F900F907F
:100A90000F900F900F900AE010E02CC01092070406
:100AA00010920604C4DB80E0C5DB109210041092A3
:100AB0002404109225041092FE031092FD0310925C
:100AC000F9038091E7029091E80201979093E80280
:100AD0008093E7021092FA030BE010E00BC00DE0E8
:100AE00010E008C00CE010E005C000E010E002C01B
:100AF00005E010E0C801A4960FB6F894DEBF0FBE63
:100B0000CDBFDF91CF911F910F910895CF93DF93C8
:100B100000D000D0CDB7DEB78CE081B98FEF82B9BD
:100B20008AB91BB884B915B887B918B8A7EEB3E06D
:100B3000BA83A983ECEDF3E0FC83EB831C9241E0E4
:100B400050E060E070E011964D935D936D937C935F
:100B5000149715964D935D936D937C9318978FE43E
:100B600091E01A969C938E93199710824183528339
:100B700063837483458356836783708784EB93E034
:100B8000928781876BE470E080E090E0C3DAD3DA8B
:100B900059DBC5DD7E0185E0E80EF11CDE01119612
:100BA0006D01F601019111916F01D80115964D91DA
:100BB0005D916D917C91189711968D919D910D90FD
:100BC000BC91A02D481759076A077B0781F4F801EB
:100BD00080810184F285E02D082E000C990B099587
:100BE000D8018C93F8011582168217821086F801BD
:100BF00085819681A781B0850196A11DB11D858350
:100C00009683A783B087CE14DF0459F680910C0435
:100C10008823E1F310920C04C1CFA1E21A2EAA1B83
:100C2000BB1BFD010DC0AA1FBB1FEE1FFF1FA2179C
:100C3000B307E407F50720F0A21BB30BE40BF50B99
:100C4000661F771F881F991F1A9469F76095709522
:100C5000809590959B01AC01BD01CF010895EE0FE9
:100C6000FF1F0024001C0BBE0790F691E02D099495
:100C70008F929F92AF92BF92CF92DF92EF92FF92AC
:100C8000CF93DF93EC01688179818A819B81611523
:100C900071058105910521F464E279ED8BE597E01A
:100CA0002DE133EF41E050E034D349015A019B017B
:100CB000AC01A7EAB1E449D36B017C01ACEEB4EF1F
:100CC000A50194014ED3DC01CB018C0D9D1DAE1D01
:100CD000BF1DB7FF03C00197A109B048888399835E
:100CE000AA83BB839F77DF91CF91FF90EF90DF9036
:100CF000CF90BF90AF909F908F900895B9CF80E034
:100D000091E0B6CFA0E0B0E08093000190930101A4
:100D1000A0930201B09303010895FB01DC010D9043
:100D20000020E9F7119701900D920020E1F7089556
:100D30000F931F93CF93DF93CDB7DEB72E970FB6E8
:100D4000F894DEBF0FBECDBF0D891E8986E08C836F
:100D50001A8309838FEF9FE79E838D83AE01475EE1
:100D60005F4F6F89788DCE01019610D0EF81F885A5
:100D7000E00FF11F10822E960FB6F894DEBF0FBE63
:100D8000CDBFDF91CF911F910F9108952F923F9288
:100D90004F925F926F927F928F929F92AF92BF928B
:100DA000CF92DF92EF92FF920F931F93CF93DF9337
:100DB000CDB7DEB72B970FB6F894DEBF0FBECDBF11
:100DC0006C017B018A01FC0117821682838181FFFD
:100DD000BFC1CE0101963C01F6019381F70193FD5D
:100DE000859193FF81917F01882309F4ADC18532FC
:100DF00039F493FD859193FF81917F01853221F430
:100E0000B60190E0D6D1E8CF912C212C312CFFE116
:100E1000F315D8F08B3279F038F4803279F08332E0
:100E2000A1F4232D20611DC08D3261F0803369F45F
:100E3000232D216016C0832D8260382EE32DE460BF
:100E40003E2E2AC0F32DF8601DC037FC2DC020EDCA
:100E5000280F2A3040F08E32B9F436FC75C1232DAC
:100E60002064322E19C036FE06C08AE0989E200DFE
:100E70001124922E11C0EAE02E9E200D1124222E64
:100E8000F32DF0623F2E08C08C3621F4832D80684C
:100E9000382E02C0883641F4F70193FD859193FF07
:100EA00081917F018111B3CF982F9F7D955493300D
:100EB00028F40C5F1F4F9FE399830DC0833631F0F8
:100EC000833771F0833509F055C020C0F801808167
:100ED00089830E5F1F4F88248394912C530112C085
:100EE0002801F2E04F0E511CF801A080B18036FEBF
:100EF00003C0692D70E002C06FEF7FEFC5014ED1D6
:100F00004C018201F32DFF773F2E15C0280122E00E
:100F1000420E511CF801A080B18036FE03C0692D3D
:100F200070E002C06FEF7FEFC5012DD14C01F32DB2
:100F3000F0683F2E820133FC19C0822D90E08816A4
:100F40009906A0F4B60180E290E033D12A94F5CF5F
:100F5000F50137FC859137FE81915F01B60190E084
:100F600028D121102A9421E0821A91088114910439
:100F700079F7E1C0843611F0893639F5F80137FE8A
:100F800007C060817181828193810C5F1F4F08C00F
:100F900060817181072E000C880B990B0E5F1F4F2B
:100FA000F32DFF763F2E97FF09C0909580957095A1
:100FB00061957F4F8F4F9F4FF0683F2E2AE030E0C2
:100FC000A30133D1882E861844C0853731F4232DF0
:100FD0002F7EB22E2AE030E025C0932D997FB92EC6
:100FE0008F36C1F018F4883579F0AEC0803719F02B
:100FF000883721F0A9C0E92FE061BE2EB4FE0DC0F4
:10100000FB2DF460BF2E09C034FE0AC0292F2660D4
:10101000B22E06C028E030E005C020E130E002C07A
:1010200020E132E0F801B7FE07C060817181828162
:1010300093810C5F1F4F06C06081718180E090E05A
:101040000E5F1F4FA301F1D0882E8618FB2DFF776E
:101050003F2E36FE0DC0232D2E7FA22E891458F46C
:1010600034FE0BC032FC09C0832D8E7EA82E05C035
:10107000B82CA32C03C0B82C01C0B92CA4FE0FC0FF
:10108000FE01E80DF11D8081803321F49A2D997EB7
:10109000A92E09C0A2FE06C0B394B39404C08A2D41
:1010A000867809F0B394A3FC10C0A0FE06C0B21469
:1010B00080F4280C922C9B180DC0B21458F4B60181
:1010C00080E290E076D0B394F8CFB21418F42B18E5
:1010D00002C0982C212CA4FE0FC0B60180E390E042
:1010E00068D0A2FE16C0A1FC03C088E790E002C051
:1010F00088E590E0B6010CC08A2D867851F0A1FEFB
:1011000002C08BE201C080E2A7FC8DE2B60190E054
:1011100050D0891430F4B60180E390E04AD09A941C
:10112000F8CF8A94F301E80DF11D8081B60190E0BB
:1011300040D08110F6CF222009F44ECEB60180E2D5
:1011400090E037D02A94F7CFF6018681978102C0CC
:101150008FEF9FEF2B960FB6F894DEBF0FBECDBF7B
:10116000DF91CF911F910F91FF90EF90DF90CF9083
:10117000BF90AF909F908F907F906F905F904F90B7
:101180003F902F900895FC01059061507040011030
:10119000D8F7809590958E0F9F1F0895FC016150A0
:1011A000704001900110D8F7809590958E0F9F1F89
:1011B00008950F931F93CF93DF93FB01238121FDAC
:1011C00003C08FEF9FEF2CC022FF16C046815781CE
:1011D000248135814217530744F4A081B1819D01D8
:1011E0002F5F3F4F318320838C93268137812F5F80
:1011F0003F4F3783268314C08B01EC01FB01008431
:10120000F185E02D0995892BE1F6D80116968D918F
:101210009C911797019617969C938E931697CE01E3
:10122000DF91CF911F910F910895FA01AA272830DD
:1012300051F1203181F1E8946F936E7F6E5F7F4FA3
:101240008F4F9F4FAF4FB1E03ED0B4E03CD0670F1F
:10125000781F891F9A1FA11D680F791F8A1F911D72
:10126000A11D6A0F711D811D911DA11D20D009F4C2
:1012700068943F912AE0269F11243019305D319304
:10128000DEF6CF010895462F4770405D4193B3E0ED
:101290000FD0C9F7F6CF462F4F70405D4A3318F094
:1012A000495D31FD4052419302D0A9F7EACFB4E045
:1012B000A6959795879577956795BA95C9F70097FD
:1012C0006105710508959B01AC010A2E069457959E
:1012D000479537952795BA95C9F7620F731F841FF5
:1012E000951FA01D0895F999FECF92BD81BDF89A72
:1012F000992780B50895262FF999FECF1FBA92BD80
:1013000081BD20BD0FB6F894FA9AF99A0FBE0196E6
:101310000895052E97FB16F400940FD057FD05D0C5
:101320007CDC07FC02D046F408C05095409530950F
:1013300021953F4F4F4F5F4F089590958095709541
:1013400061957F4F8F4F9F4F08950FD0A59F900DB0
:10135000B49F900DA49F800D911D11240895B7FF97
:10136000F4CFF3DF821B930B0895A29FB001B39FCC
:10137000C001A39F700D811D1124911DB29F700D9E
:0C138000811D1124911D0895F894FFCFE9
:10138C000100000040034D036C0389039803A8037C
:10139C000000000000000040E0703F3F70E04000A3
:1013AC0000C3C3C3C3E77E3C0000FFFF1C3870E0E2
:1013BC00FFFF00007FFFCCCCCCFF7F0000DBDBDB32
:1013CC00DBDBFFFF000079FBDFDEDCD8FFFF00007A
:1013DC00C3C3C3C3E77E3C0000DBDBDBDBDBFFFF0F
:1013EC00000079FBDFDEDCD8FFFF0000000000000E
:1013FC000000000000000000000000C0C0C0FFFFA3
:10140C00C0C0C00000FFFF1C3870E0FFFF0000DB15
:10141C00DBDBDBDBFFFF0000FFFF60707060FFFFBA
:10142C0000007EFFC3C3C3C3FF7E0000D8D8D8D84A
:10143C00D8FFFF00000000000000000000000000CA
:10144C0000000000C0C0C0FFFFC0C0C00000FFFF14
:10145C001C3870E0FFFF00007FFFCCCCCCFF7F007E
:10146C000079FBDFDEDCD8FFFF000079FBDFDEDC80
:10147C00D8FFFF00007FFFCCCCCCFF7F000000002A
:10148C0000000000000000000000000000DBDBDBBF
:10149C00DBDBFFFF0000030303030303FFFF00007C
:1014AC003C7EDBDBDBFFFF00003C7EDBDBDBFFFF9E
:1014BC000000C3C3C3FFFFC3C3C30000FEFF03038D
:1014CC000303FFFE00007EFFCFDFDBC3FF7E0000C7
:1014DC000000000000000000000000000000000000
:1014EC00DBDBDBDBDBFFFF00007EBDC3C3C3FFFF29
:1014FC000000FEFF03030303FFFE000003030303CE
:10150C000303FFFF0000C3C3C3C3E77E3C0000C35B
:10151C00C3C3C3E77E3C00007EFFC3C3C3C3FF7ECF
:10152C0000000000000000000000524543524541FD
:10153C004E435900464F4D454E5400415252414E78
:10154C00540051554942424C45004F43434C55447D
:10155C004500313233343536373839303132333463
:10156C00353637383930000F00C203D1038D0041B6
:10157C0042434445464748494A4B4C4D4E4F5051C7
:10158C0052535455565758595A0001000000010245
:10159C000408102040804E657874204C6576656C8C
:1015AC003A20004C617374204C6576656C3A2000CF
:1015BC00256400486967682053636F72653A2000A0
:1015CC004C6576656C204F6E652E2E2E0041636344
:1015DC006570743A2059656C6C6F77202020202040
:1015EC002020202020427574746F6E004E65787434
:1015FC003A20426C756520202020202020202020BD
:10160C002020427574746F6E005072657373207471
:10161C006F20537461727400205370656C6C696E2A
:10162C00672047616D65210057656C636F6D6520A0
:10163C00746F3A004E455854204C4556454C2E2E4E
:10164C002E004C4556454C20434F4D504C4554456F
:0C165C000047414D45204F56455200000C
:00000001FF
