S01B00006A667261633030315F6C6162375F70617274312E7372656366
S11300004DC0000068C0000066C0000064C000006D
S113001062C0000060C000005EC000005CC0000060
S11300205AC0000058C0000056C0000054C0000070
S113003052C00000A9C000004EC000004CC0000027
S11300404AC0000048C0000046C0000044C0000090
S113005042C0000040C000003EC000003CC00000A0
S11300603AC0000038C0000036C0000034C00000B0
S113007032C0000030C000002EC000002CC00000C0
S11300802AC0000028C0000026C000001D01250170
S11300903A015401500169016D01750111241FBE1B
S11300A0CFEFD0E4DEBFCDBF11E0A0E0B1E0E0E5EA
S11300B0F3E000E00BBF02C007900D92A630B10739
S11300C0D9F721E0A6E0B1E001C01D92AE30B2073D
S11300D0E1F716D13BC194CF181619065CF00895C8
S11300E0000021503109E1F74F5F5F4F84179507F6
S11300F019F4089540E050E027E033E0F1CF5E9832
S113010088B95F9A00005F9882E090E0E5CF089597
S113011084E690E0E1DF88E3F2DF86E0F0DF8FE061
S1130120EEDF81E0ECDF8AE090E0D6CF08955E9ABE
S113013088B95F9A00005F9881E090E0CDCF089580
S11301408BE0809381008DE790E090938900809309
S1130150880082E080936F001092850010928400E2
S11301608091020190910301A0910401B0910501D5
S11301708093060190930701A0930801B0930901AD
S11301808FB780688FBF08951F920F920FB60F929A
S113019011248F939F93AF93BF9380910601909105
S11301A00701A0910801B09109010197A109B109C2
S11301B08093060190930701A0930801B09309016D
S11301C0892B8A2B8B2B99F481E080930A018091EF
S11301D0020190910301A0910401B0910501809363
S11301E0060190930701A0930801B0930901BF9100
S11301F0AF919F918F910F900FBE0F901F90189504
S113020060930201709303018093040190930501AC
S1130210609306017093070180930801909309018C
S11302200895E0910D018E2F90E08830910508F03B
S113023064C0FC01EA5BFF4F80C081E080930D0144
S113024010920B0180E373CF089580910C018330E9
S113025021F487E080930D010895813021F482E038
S113026080930D010895823009F049C083E08093A2
S11302700D01089580910C01813009F440C08091F2
S11302800B01893038F491E0980F90930B018F5C47
S11302904EDF02C0805D4BDF84E080930D01089542
S11302A081E080930D01089580910C01823039F131
S11302B080910B01882339F09FEF980F90930B01E5
S11302C0815D35DF02C080E332DF85E080930D017C
S11302D0089581E080930D01089580910C0183308D
S11302E071F087E080930D01089510920B0180E373
S11302F01EDF81E080930D01089510920D01089591
S113030011B883E082B98FEF87B918B86091000102
S11303107091010180E090E073DF12DF10920D0113
S113032080B1837080930C01F3DE7BDF80910A013E
S11303308823E1F310920A01F3CFEE0FFF1F00248C
S1130340001C0BBE0790F691E02D0994F894FFCFA2
S1090350E80301000000B7
S9030000FC
