:100000008AC00000A5C00000A3C00000A1C000007D
:100010009FC000009DC000009BC0000099C0000070
:1000200097C0000095C0000093C0000091C0000080
:100030008FC00000C3C000008BC0000089C000005A
:1000400087C0000085C0000083C0000081C00000A0
:100050007FC000007DC000007BC0000079C00000B0
:1000600077C0000075C0000073C0000071C00000C0
:100070006FC000006DC000006BC0000069C00000D0
:1000800067C0000065C0000063C000007601A801E1
:10009000A801A801A801A801A801A801A801A80118
:1000A000A801A801A801A801A801A801A801A80108
:1000B000A801A801A801A801A801A801A801A801F8
:1000C000A801A801A801A801A801A801A801A801E8
:1000D000A801A501A801A801A801A801A801A801DB
:1000E000A001A801A801A801A801A801A301790104
:1000F0007C017F018201850188018B018E019101C4
:10010000A801A801A801A801A801A801A8019401BB
:1001100097019A019D0111241FBECFEFD0E4DEBFED
:10012000CDBF11E0A0E0B1E0E6E1F4E000E00BBFFC
:1001300002C007900D92A430B107D9F721E0A4E0E6
:10014000B1E001C01D92A431B207E1F708D161C14D
:1001500057CF609300017093010180930201909347
:10016000030160930F01709310018093110190932C
:10017000120108958BE0809381008DE790E09093C9
:1001800089008093880082E080936F001092850040
:10019000109284008091000190910101A0910201D0
:1001A000B091030180930F0190931001A09311016E
:1001B000B09312018FB780688FBF08951F920F927E
:1001C0000FB60F9211248F939F93AF93BF9380919B
:1001D0000F0190911001A0911101B09112010197AE
:1001E000A109B10980930F0190931001A09311010F
:1001F000B0931201892B8A2B8B2B99F481E0809389
:1002000013018091000190910101A0910201B09130
:10021000030180930F0190931001A0931101B093FB
:100220001201BF91AF919F918F910F900FBE0F90D0
:100230001F9018958FEE88B90000309B29C0319B24
:1002400029C0329B29C0339B29C08FED88B900009B
:10025000309B26C0319B26C0329B26C0339B26C0D4
:100260008FEB88B90000309B23C0319B23C0329BA9
:1002700023C0339B23C08FE788B90000309B20C088
:10028000319B20C0329B20C0339B20C080E008956A
:1002900081E3089584E3089587E308958AE2089549
:1002A00082E3089585E3089588E3089580E308953F
:1002B00083E3089586E3089589E3089583E208952A
:1002C00081E4089582E4089583E4089584E4089520
:1002D000CF93DF93EC01AEDFCD2BE1F590E08534D9
:1002E0009105B0F5FC01EA5BFF4F8AC08FE185B94B
:1002F00031C081E085B92EC082E085B92BC083E092
:1003000085B928C084E085B925C085E085B922C0BB
:1003100086E085B91FC087E085B91CC088E085B933
:1003200019C089E085B916C08AE085B913C08BE091
:1003300085B910C08CE085B90DC08DE085B90AC0C3
:100340008EE085B907C015B805C08FE085B902C039
:100350008BE185B980E090E0DF91CF91089511B8ED
:1003600012B88FEF84B915B890EF97B99FE098B99C
:100370008AB91BB8E4E0F1E080838AE090E0A0E075
:10038000B0E081839283A383B48385839683A7831C
:10039000B08788E691E09287818765E070E080E031
:1003A00090E0D7DEE7DEC4E0D1E04D815E816F8171
:1003B000788589819A81AB81BC81481759076A0782
:1003C0007B0761F48881E985FA85082E000C990B7A
:1003D000099588831D821E821F8218868D819E81C9
:1003E000AF81B8850196A11DB11D8D839E83AF831A
:1003F000B887809113018823E1F310921301D5CFC0
:10040000EE0FFF1F0024001C0BBE0790F691E02D9D
:060410000994F894FFCFEF
:0404160001000000E1
:00000001FF
